{
  "address": "0x30a7653DD78Ef282ee00a8042F556C7ECFc7c198",
  "abi": [
    {
      "anonymous": false,
      "inputs": [
        {
          "indexed": true,
          "internalType": "address",
          "name": "account",
          "type": "address"
        },
        {
          "indexed": true,
          "internalType": "address",
          "name": "operator",
          "type": "address"
        },
        {
          "indexed": false,
          "internalType": "bool",
          "name": "approved",
          "type": "bool"
        }
      ],
      "name": "ApprovalForAll",
      "type": "event"
    },
    {
      "anonymous": false,
      "inputs": [
        {
          "indexed": true,
          "internalType": "address",
          "name": "operator",
          "type": "address"
        },
        {
          "indexed": true,
          "internalType": "address",
          "name": "from",
          "type": "address"
        },
        {
          "indexed": true,
          "internalType": "address",
          "name": "to",
          "type": "address"
        },
        {
          "indexed": false,
          "internalType": "uint256[]",
          "name": "ids",
          "type": "uint256[]"
        },
        {
          "indexed": false,
          "internalType": "uint256[]",
          "name": "values",
          "type": "uint256[]"
        }
      ],
      "name": "TransferBatch",
      "type": "event"
    },
    {
      "anonymous": false,
      "inputs": [
        {
          "indexed": true,
          "internalType": "address",
          "name": "operator",
          "type": "address"
        },
        {
          "indexed": true,
          "internalType": "address",
          "name": "from",
          "type": "address"
        },
        {
          "indexed": true,
          "internalType": "address",
          "name": "to",
          "type": "address"
        },
        {
          "indexed": false,
          "internalType": "uint256",
          "name": "id",
          "type": "uint256"
        },
        {
          "indexed": false,
          "internalType": "uint256",
          "name": "value",
          "type": "uint256"
        }
      ],
      "name": "TransferSingle",
      "type": "event"
    },
    {
      "anonymous": false,
      "inputs": [
        {
          "indexed": false,
          "internalType": "string",
          "name": "value",
          "type": "string"
        },
        {
          "indexed": true,
          "internalType": "uint256",
          "name": "id",
          "type": "uint256"
        }
      ],
      "name": "URI",
      "type": "event"
    },
    {
      "anonymous": false,
      "inputs": [
        {
          "indexed": false,
          "internalType": "uint256",
          "name": "challengeId",
          "type": "uint256"
        },
        {
          "indexed": false,
          "internalType": "string",
          "name": "challengeUrl",
          "type": "string"
        },
        {
          "indexed": false,
          "internalType": "address",
          "name": "buyer",
          "type": "address"
        },
        {
          "indexed": false,
          "internalType": "uint256",
          "name": "price",
          "type": "uint256"
        },
        {
          "indexed": false,
          "internalType": "uint256",
          "name": "amount",
          "type": "uint256"
        }
      ],
      "name": "boughtChallenges",
      "type": "event"
    },
    {
      "anonymous": false,
      "inputs": [
        {
          "indexed": false,
          "internalType": "uint256",
          "name": "id",
          "type": "uint256"
        },
        {
          "indexed": false,
          "internalType": "uint256",
          "name": "tokenId",
          "type": "uint256"
        },
        {
          "indexed": false,
          "internalType": "string",
          "name": "challengeUrl",
          "type": "string"
        },
        {
          "indexed": false,
          "internalType": "address",
          "name": "to",
          "type": "address"
        },
        {
          "indexed": false,
          "internalType": "uint256",
          "name": "amount",
          "type": "uint256"
        }
      ],
      "name": "mintedChallenge",
      "type": "event"
    },
    {
      "anonymous": false,
      "inputs": [
        {
          "indexed": false,
          "internalType": "uint256",
          "name": "challengeId",
          "type": "uint256"
        },
        {
          "indexed": false,
          "internalType": "uint256",
          "name": "tokenId",
          "type": "uint256"
        },
        {
          "indexed": false,
          "internalType": "uint256",
          "name": "price",
          "type": "uint256"
        }
      ],
      "name": "newTokenPrice",
      "type": "event"
    },
    {
      "inputs": [
        {
          "internalType": "uint256",
          "name": "id",
          "type": "uint256"
        }
      ],
      "name": "accountsByToken",
      "outputs": [
        {
          "internalType": "address[]",
          "name": "",
          "type": "address[]"
        }
      ],
      "stateMutability": "view",
      "type": "function"
    },
    {
      "inputs": [
        {
          "internalType": "address",
          "name": "account",
          "type": "address"
        },
        {
          "internalType": "uint256",
          "name": "id",
          "type": "uint256"
        }
      ],
      "name": "balanceOf",
      "outputs": [
        {
          "internalType": "uint256",
          "name": "",
          "type": "uint256"
        }
      ],
      "stateMutability": "view",
      "type": "function"
    },
    {
      "inputs": [
        {
          "internalType": "address[]",
          "name": "accounts",
          "type": "address[]"
        },
        {
          "internalType": "uint256[]",
          "name": "ids",
          "type": "uint256[]"
        }
      ],
      "name": "balanceOfBatch",
      "outputs": [
        {
          "internalType": "uint256[]",
          "name": "",
          "type": "uint256[]"
        }
      ],
      "stateMutability": "view",
      "type": "function"
    },
    {
      "inputs": [
        {
          "internalType": "string",
          "name": "_challengeUrl",
          "type": "string"
        },
        {
          "internalType": "uint256",
          "name": "_amount",
          "type": "uint256"
        },
        {
          "internalType": "bytes",
          "name": "_data",
          "type": "bytes"
        }
      ],
      "name": "buyChallenges",
      "outputs": [
        {
          "internalType": "uint256[]",
          "name": "",
          "type": "uint256[]"
        }
      ],
      "stateMutability": "payable",
      "type": "function"
    },
    {
      "inputs": [
        {
          "internalType": "uint256",
          "name": "_challengeId",
          "type": "uint256"
        },
        {
          "internalType": "uint256[]",
          "name": "_tokenIds",
          "type": "uint256[]"
        },
        {
          "internalType": "uint256",
          "name": "_amount",
          "type": "uint256"
        },
        {
          "internalType": "bytes",
          "name": "data",
          "type": "bytes"
        }
      ],
      "name": "buyTokens",
      "outputs": [],
      "stateMutability": "payable",
      "type": "function"
    },
    {
      "inputs": [
        {
          "internalType": "string",
          "name": "challengeUrl",
          "type": "string"
        },
        {
          "internalType": "uint256",
          "name": "tokenId",
          "type": "uint256"
        }
      ],
      "name": "challengeTokenById",
      "outputs": [
        {
          "internalType": "uint256",
          "name": "",
          "type": "uint256"
        }
      ],
      "stateMutability": "view",
      "type": "function"
    },
    {
      "inputs": [
        {
          "internalType": "string",
          "name": "_challengeUrl",
          "type": "string"
        }
      ],
      "name": "challengeTokenCount",
      "outputs": [
        {
          "internalType": "uint256",
          "name": "challengeTokenCount_",
          "type": "uint256"
        }
      ],
      "stateMutability": "view",
      "type": "function"
    },
    {
      "inputs": [
        {
          "internalType": "address",
          "name": "to",
          "type": "address"
        },
        {
          "internalType": "string",
          "name": "challengeUrl",
          "type": "string"
        },
        {
          "internalType": "string",
          "name": "jsonUrl",
          "type": "string"
        },
        {
          "internalType": "bytes",
          "name": "data",
          "type": "bytes"
        }
      ],
      "name": "firstMint",
      "outputs": [
        {
          "internalType": "uint256[]",
          "name": "",
          "type": "uint256[]"
        }
      ],
      "stateMutability": "nonpayable",
      "type": "function"
    },
    {
      "inputs": [
        {
          "internalType": "address",
          "name": "account",
          "type": "address"
        },
        {
          "internalType": "address",
          "name": "operator",
          "type": "address"
        }
      ],
      "name": "isApprovedForAll",
      "outputs": [
        {
          "internalType": "bool",
          "name": "",
          "type": "bool"
        }
      ],
      "stateMutability": "view",
      "type": "function"
    },
    {
      "inputs": [
        {
          "internalType": "address",
          "name": "to",
          "type": "address"
        },
        {
          "internalType": "string",
          "name": "_challengeUrl",
          "type": "string"
        },
        {
          "internalType": "uint256",
          "name": "amount",
          "type": "uint256"
        },
        {
          "internalType": "bytes",
          "name": "data",
          "type": "bytes"
        }
      ],
      "name": "mint",
      "outputs": [
        {
          "internalType": "uint256[]",
          "name": "",
          "type": "uint256[]"
        }
      ],
      "stateMutability": "nonpayable",
      "type": "function"
    },
    {
      "inputs": [
        {
          "internalType": "address",
          "name": "to",
          "type": "address"
        },
        {
          "internalType": "string",
          "name": "_challengeUrl",
          "type": "string"
        },
        {
          "internalType": "bytes",
          "name": "signature",
          "type": "bytes"
        },
        {
          "internalType": "uint256",
          "name": "amount",
          "type": "uint256"
        },
        {
          "internalType": "bytes",
          "name": "data",
          "type": "bytes"
        }
      ],
      "name": "mintFromSignature",
      "outputs": [
        {
          "internalType": "uint256[]",
          "name": "",
          "type": "uint256[]"
        }
      ],
      "stateMutability": "nonpayable",
      "type": "function"
    },
    {
      "inputs": [
        {
          "internalType": "address",
          "name": "from",
          "type": "address"
        },
        {
          "internalType": "address",
          "name": "to",
          "type": "address"
        },
        {
          "internalType": "uint256[]",
          "name": "ids",
          "type": "uint256[]"
        },
        {
          "internalType": "uint256[]",
          "name": "amounts",
          "type": "uint256[]"
        },
        {
          "internalType": "bytes",
          "name": "data",
          "type": "bytes"
        }
      ],
      "name": "safeBatchTransferFrom",
      "outputs": [],
      "stateMutability": "nonpayable",
      "type": "function"
    },
    {
      "inputs": [
        {
          "internalType": "address",
          "name": "from",
          "type": "address"
        },
        {
          "internalType": "address",
          "name": "to",
          "type": "address"
        },
        {
          "internalType": "uint256",
          "name": "id",
          "type": "uint256"
        },
        {
          "internalType": "uint256",
          "name": "amount",
          "type": "uint256"
        },
        {
          "internalType": "bytes",
          "name": "data",
          "type": "bytes"
        }
      ],
      "name": "safeTransferFrom",
      "outputs": [],
      "stateMutability": "nonpayable",
      "type": "function"
    },
    {
      "inputs": [
        {
          "internalType": "address",
          "name": "operator",
          "type": "address"
        },
        {
          "internalType": "bool",
          "name": "status",
          "type": "bool"
        }
      ],
      "name": "setApprovalForAll",
      "outputs": [],
      "stateMutability": "nonpayable",
      "type": "function"
    },
    {
      "inputs": [
        {
          "internalType": "uint256",
          "name": "_challengeId",
          "type": "uint256"
        },
        {
          "internalType": "uint256",
          "name": "_tokenId",
          "type": "uint256"
        },
        {
          "internalType": "uint256",
          "name": "_price",
          "type": "uint256"
        }
      ],
      "name": "setTokenPrice",
      "outputs": [
        {
          "internalType": "uint256",
          "name": "",
          "type": "uint256"
        }
      ],
      "stateMutability": "nonpayable",
      "type": "function"
    },
    {
      "inputs": [
        {
          "internalType": "address",
          "name": "account",
          "type": "address"
        }
      ],
      "name": "tokensByAccount",
      "outputs": [
        {
          "internalType": "uint256[]",
          "name": "",
          "type": "uint256[]"
        }
      ],
      "stateMutability": "view",
      "type": "function"
    },
    {
      "inputs": [
        {
          "internalType": "uint256",
          "name": "id",
          "type": "uint256"
        }
      ],
      "name": "totalHolders",
      "outputs": [
        {
          "internalType": "uint256",
          "name": "",
          "type": "uint256"
        }
      ],
      "stateMutability": "view",
      "type": "function"
    },
    {
      "inputs": [
        {
          "internalType": "uint256",
          "name": "id",
          "type": "uint256"
        }
      ],
      "name": "totalSupply",
      "outputs": [
        {
          "internalType": "uint256",
          "name": "",
          "type": "uint256"
        }
      ],
      "stateMutability": "view",
      "type": "function"
    }
  ],
  "transactionHash": "0x35b009c3cefee60cbeb3a0e3d4f2d8ef4d7e6adaa77d901244935b9007375ffc",
  "args": [],
  "solcInputHash": "5557da8d5fc34779c94daee94142e804",
  "bytecode": "0x608060405234801561001057600080fd5b506142d3806100206000396000f3fe6080604052600436106101085760003560e01c8063a22cb46511610095578063bd85b03911610064578063bd85b039146102d2578063e985e9c5146102f2578063f242432a1461031f578063fd03b8c71461033f578063fdba34601461035f57610108565b8063a22cb46514610252578063a34fea5b14610272578063a3b8fae314610292578063bca2b941146102b257610108565b80634e1273f4116100dc5780634e1273f4146101b25780635523c250146101d25780636db77ff0146101f25780636dcfd8411461020557806385bff2e71461023257610108565b8062fdd58e1461010d578063074db9261461014357806313ba55df146101705780632eb2c2d614610190575b600080fd5b34801561011957600080fd5b5061012d6101283660046132ca565b610372565b60405161013a9190613fdc565b60405180910390f35b34801561014f57600080fd5b5061016361015e3660046131a1565b6103d4565b60405161013a9190613894565b34801561017c57600080fd5b5061012d61018b3660046135bb565b6105be565b34801561019c57600080fd5b506101b06101ab366004612fb9565b6105ea565b005b3480156101be57600080fd5b506101636101cd3660046132f5565b610666565b3480156101de57600080fd5b506101636101ed366004613247565b61081d565b6101b06102003660046135d3565b610991565b34801561021157600080fd5b506102256102203660046135bb565b6110df565b60405161013a9190613847565b34801561023e57600080fd5b5061016361024d366004612f65565b6111c8565b34801561025e57600080fd5b506101b061026d3660046130c8565b6112a6565b34801561027e57600080fd5b5061012d61028d3660046133dc565b61134c565b34801561029e57600080fd5b5061012d6102ad36600461340e565b611377565b3480156102be57600080fd5b5061012d6102cd366004613660565b6113ac565b3480156102de57600080fd5b5061012d6102ed3660046135bb565b611768565b3480156102fe57600080fd5b5061031261030d366004612f81565b611783565b60405161013a91906138cc565b34801561032b57600080fd5b506101b061033a366004613062565b6117c0565b34801561034b57600080fd5b5061016361035a3660046130f9565b611814565b61016361036d366004613450565b611908565b60006001600160a01b0383166103a35760405162461bcd60e51b815260040161039a90613a9c565b60405180910390fd5b6103ab611cb3565b6000838152602091825260408082206001600160a01b0387168352909252205490505b92915050565b6060600080600901876040516103ea9190613757565b90815260200160405180910390205490506000811161041b5760405162461bcd60e51b815260040161039a90613c4b565b60006104268861134c565b60405163fd74ec0960e01b8152909150600090309063fd74ec099061044f908690600401613fdc565b60006040518083038186803b15801561046757600080fd5b505afa15801561047b573d6000803e3d6000fd5b505050506040513d6000823e601f3d908101601f191682016040526104a391908101906134bc565b90508060e001518210806104b9575060e0810151155b6104d55760405162461bcd60e51b815260040161039a90613e49565b6000601960f81b600060f81b308d8560600151876040516020016104fe969594939291906136f1565b6040516020818303038152906040528051906020012090506000610527828b8560200151611cd7565b9050808061053f5750600054600160a01b900460ff16155b61055b5760405162461bcd60e51b815260040161039a90613d93565b60006105ad8d8560000151866060015187604001518e8e8e8080601f016020809104026020016040519081016040528093929190818152602001838380828437600092019190915250611da792505050565b9d9c50505050505050505050505050565b60006105e26105cb61212c565b600084815260019190910160205260409020612150565b90505b919050565b815183511461060b5760405162461bcd60e51b815260040161039a90613f53565b6001600160a01b03851633148061062757506106278533611783565b6106435760405162461bcd60e51b815260040161039a90613bc1565b61065133868686868661215b565b61065f338686868686612273565b5050505050565b606081518351146106895760405162461bcd60e51b815260040161039a90613f0a565b6000610693611cb3565b6000019050600084516001600160401b038111156106c157634e487b7160e01b600052604160045260246000fd5b6040519080825280602002602001820160405280156106ea578160200160208202803683370190505b50905060005b85518110156108145760006001600160a01b031686828151811061072457634e487b7160e01b600052603260045260246000fd5b60200260200101516001600160a01b031614156107535760405162461bcd60e51b815260040161039a90613ae7565b82600086838151811061077657634e487b7160e01b600052603260045260246000fd5b6020026020010151815260200190815260200160002060008783815181106107ae57634e487b7160e01b600052603260045260246000fd5b60200260200101516001600160a01b03166001600160a01b03168152602001908152602001600020548282815181106107f757634e487b7160e01b600052603260045260246000fd5b60209081029190910101528061080c81614194565b9150506106f0565b50949350505050565b6060600080600901866040516108339190613757565b9081526040519081900360200181205463fd74ec0960e01b82529150600090309063fd74ec0990610868908590600401613fdc565b60006040518083038186803b15801561088057600080fd5b505afa158015610894573d6000803e3d6000fd5b505050506040513d6000823e601f3d908101601f191682016040526108bc91908101906134bc565b90506108c66123fe565b6001600160a01b031681602001516001600160a01b0316146108fa5760405162461bcd60e51b815260040161039a90613d93565b8060e001516109088861134c565b1080610916575060e0810151155b6109325760405162461bcd60e51b815260040161039a90613e49565b6000610984898360000151846060015185604001518b8b8b8080601f016020809104026020016040519081016040528093929190818152602001838380828437600092019190915250611da792505050565b9998505050505050505050565b8284146109b05760405162461bcd60e51b815260040161039a90613b38565b6000836001600160401b038111156109d857634e487b7160e01b600052604160045260246000fd5b604051908082528060200260200182016040528015610a01578160200160208202803683370190505b5090506000846001600160401b03811115610a2c57634e487b7160e01b600052604160045260246000fd5b604051908082528060200260200182016040528015610a55578160200160208202803683370190505b5090506000805b86811015610e0f57600060808a8a84818110610a8857634e487b7160e01b600052603260045260246000fd5b905060200201358c610a9a91906140bb565b901b905080858381518110610abf57634e487b7160e01b600052603260045260246000fd5b602002602001018181525050600080600b0160008381526020019081526020016000206040518060a001604052908160008201548152602001600182018054610b0790614159565b80601f0160208091040260200160405190810160405280929190818152602001828054610b3390614159565b8015610b805780601f10610b5557610100808354040283529160200191610b80565b820191906000526020600020905b815481529060010190602001808311610b6357829003601f168201915b505050918352505060028201546020808301919091526040805180830182526003850154815281840152805161014081018252600485018054825260058601546001600160a01b031693820193909352600685018054606090950194919392840191610beb90614159565b80601f0160208091040260200160405190810160405280929190818152602001828054610c1790614159565b8015610c645780601f10610c3957610100808354040283529160200191610c64565b820191906000526020600020905b815481529060010190602001808311610c4757829003601f168201915b50505050508152602001600382018054610c7d90614159565b80601f0160208091040260200160405190810160405280929190818152602001828054610ca990614159565b8015610cf65780601f10610ccb57610100808354040283529160200191610cf6565b820191906000526020600020905b815481529060010190602001808311610cd957829003601f168201915b505050918352505060048281015460208084019190915260058401546040808501919091528051918201905260068401548152606083015260078301546080830152600883015460a09092019160ff1690811115610d6457634e487b7160e01b600052602160045260246000fd5b6004811115610d8357634e487b7160e01b600052602160045260246000fd5b81526020016009820154815250508152505090506000816040015111610dbb5760405162461bcd60e51b815260040161039a90613e8a565b6040810151610dca90856140bb565b93506001858481518110610dee57634e487b7160e01b600052603260045260246000fd5b60200260200101818152505050508080610e0790614194565b915050610a5c565b5080341015610e305760405162461bcd60e51b815260040161039a906139ac565b6000610e3a611cb3565b600101600085600081518110610e6057634e487b7160e01b600052603260045260246000fd5b6020908102919091018101518252810191909152604001600020546001600160a01b03169050610ed081610e926123fe565b86868a8a8080601f0160208091040260200160405190810160405280939291908181526020018383808284376000920191909152506105ea92505050565b600454600090610eed90606490610ee7903461242f565b9061243b565b90506000610efb3483612447565b60008d8152600d6020526040812080549293509091610f1990614159565b80601f0160208091040260200160405190810160405280929190818152602001828054610f4590614159565b8015610f925780601f10610f6757610100808354040283529160200191610f92565b820191906000526020600020905b815481529060010190602001808311610f7557829003601f168201915b505060405163c18ed80760e01b815293945060009330935063c18ed8079250610fc09150859060040161390e565b60006040518083038186803b158015610fd857600080fd5b505afa158015610fec573d6000803e3d6000fd5b505050506040513d6000823e601f3d908101601f1916820160405261101491908101906134bc565b60208101516040519192506001600160a01b03169085156108fc029086906000818181858888f19350505050158015611051573d6000803e3d6000fd5b506040516001600160a01b0386169084156108fc029085906000818181858888f19350505050158015611088573d6000803e3d6000fd5b507f9a2f79f2005dc2b7ac119440e5263789bfa15aeb05f51be25c39b2ae17736cd78e836110b46123fe565b348f6040516110c7959493929190613fe5565b60405180910390a15050505050505050505050505050565b606060006110eb61212c565b600084815260019190910160205260408120915061110882612150565b6001600160401b0381111561112d57634e487b7160e01b600052604160045260246000fd5b604051908082528060200260200182016040528015611156578160200160208202803683370190505b50905060005b61116583612150565b8110156111c0576111768382612453565b82828151811061119657634e487b7160e01b600052603260045260246000fd5b6001600160a01b0390921660209283029190910190910152806111b881614194565b91505061115c565b509392505050565b606060006111d461212c565b6001600160a01b03841660009081526002919091016020526040812091506111fb82612150565b6001600160401b0381111561122057634e487b7160e01b600052604160045260246000fd5b604051908082528060200260200182016040528015611249578160200160208202803683370190505b50905060005b61125883612150565b8110156111c0576112698382612453565b82828151811061128957634e487b7160e01b600052603260045260246000fd5b60209081029190910101528061129e81614194565b91505061124f565b336001600160a01b03831614156112cf5760405162461bcd60e51b815260040161039a90613ec1565b806112d8611cb3565b336000818152600292909201602090815260408084206001600160a01b038816808652925292839020805460ff19169415159490941790935590517f17307eab39ab6107e8899845ad3d59bd9653f200f220920489ca2b5937696c31906113409085906138cc565b60405180910390a35050565b60006105e26000600c01836040516113649190613757565b9081526020016040518091039020612150565b60006113a5826000600c01856040516113909190613757565b90815260405190819003602001902090612453565b9392505050565b6000838152600e6020526040812083906113c59061245f565b10156113e35760405162461bcd60e51b815260040161039a90613b8a565b6113eb6123fe565b6001600160a01b03166113fc611cb3565b6001016000608061140d87896140bb565b901b81526020810191909152604001600020546001600160a01b0316146114465760405162461bcd60e51b815260040161039a90613c0a565b6000600b81608061145787896140bb565b901b81526020019081526020016000206040518060a00160405290816000820154815260200160018201805461148c90614159565b80601f01602080910402602001604051908101604052809291908181526020018280546114b890614159565b80156115055780601f106114da57610100808354040283529160200191611505565b820191906000526020600020905b8154815290600101906020018083116114e857829003601f168201915b505050918352505060028201546020808301919091526040805180830182526003850154815281840152805161014081018252600485018054825260058601546001600160a01b03169382019390935260068501805460609095019491939284019161157090614159565b80601f016020809104026020016040519081016040528092919081815260200182805461159c90614159565b80156115e95780601f106115be576101008083540402835291602001916115e9565b820191906000526020600020905b8154815290600101906020018083116115cc57829003601f168201915b5050505050815260200160038201805461160290614159565b80601f016020809104026020016040519081016040528092919081815260200182805461162e90614159565b801561167b5780601f106116505761010080835404028352916020019161167b565b820191906000526020600020905b81548152906001019060200180831161165e57829003601f168201915b505050918352505060048281015460208084019190915260058401546040808501919091528051918201905260068401548152606083015260078301546080830152600883015460a09092019160ff16908111156116e957634e487b7160e01b600052602160045260246000fd5b600481111561170857634e487b7160e01b600052602160045260246000fd5b8152600991909101546020909101529052506040808201859052519091507f2c5523303e5d6210325d0ee1fff3f6bf8d4f38053d487d09541b9c26d24ce08b9061175790879087908790614032565b60405180910390a150909392505050565b600061177261212c565b600092835260205250604090205490565b600061178d611cb3565b6001600160a01b039384166000908152600291909101602090815260408083209490951682529290925250205460ff1690565b6001600160a01b0385163314806117dc57506117dc8533611783565b6117f85760405162461bcd60e51b815260040161039a90613bc1565b611806338686868686612463565b61065f338686868686612534565b6001546060906001600160a01b031661182b6123fe565b6001600160a01b03161461183e57600080fd5b600061184a600561245f565b905060006118fa8a838b8b8080601f01602080910402602001604051908101604052809392919081815260200183838082843760009201919091525050604080516020601f8f018190048102820181019092528d815292508d91508c908190840183828082843760009201919091525050604080516020601f8e018190048102820181019092528c81526001935091508c908c9081908401838280828437600092019190915250611da792505050565b9a9950505050505050505050565b60606000806009018660405161191e9190613757565b90815260200160405180910390205490506000811161194f5760405162461bcd60e51b815260040161039a90613c4b565b6000818152600a602090815260408083208151610140810183528154815260018201546001600160a01b031693810193909352600281018054919284019161199690614159565b80601f01602080910402602001604051908101604052809291908181526020018280546119c290614159565b8015611a0f5780601f106119e457610100808354040283529160200191611a0f565b820191906000526020600020905b8154815290600101906020018083116119f257829003601f168201915b50505050508152602001600382018054611a2890614159565b80601f0160208091040260200160405190810160405280929190818152602001828054611a5490614159565b8015611aa15780601f10611a7657610100808354040283529160200191611aa1565b820191906000526020600020905b815481529060010190602001808311611a8457829003601f168201915b505050918352505060048281015460208084019190915260058401546040808501919091528051918201905260068401548152606083015260078301546080830152600883015460a09092019160ff1690811115611b0f57634e487b7160e01b600052602160045260246000fd5b6004811115611b2e57634e487b7160e01b600052602160045260246000fd5b8152602001600982015481525050905060008160a0015111611b625760405162461bcd60e51b815260040161039a90613dca565b6000868260a00151611b7491906140f3565b905080341015611b965760405162461bcd60e51b815260040161039a906139ac565b86611ba08961134c565b611baa91906140bb565b8260e0015111611bcc5760405162461bcd60e51b815260040161039a90613d09565b6000611bd66123fe565b90506000611c2a828560000151866060015187604001518d8d8d8080601f016020809104026020016040519081016040528093929190818152602001838380828437600092019190915250611da792505050565b60208501516040519192506001600160a01b0316903480156108fc02916000818181858888f19350505050158015611c66573d6000803e3d6000fd5b507f9a2f79f2005dc2b7ac119440e5263789bfa15aeb05f51be25c39b2ae17736cd7858b84348d604051611c9e959493929190613fe5565b60405180910390a19998505050505050505050565b7f1799cf914cb0cb442ca7c7ac709ee40d0cb89e87351dc08d517fbda27d50c68b90565b6000611ceb826001600160a01b0316612642565b15611d8257604051630b135d3f60e11b808252906001600160a01b03841690631626ba7e90611d2090889088906004016138d7565b60206040518083038186803b158015611d3857600080fd5b505afa158015611d4c573d6000803e3d6000fd5b505050506040513d601f19601f82011682018060405250810190611d7091906133b4565b6001600160e01b0319161490506113a5565b816001600160a01b0316611d968585612648565b6001600160a01b03161490506113a5565b6000858152600e6020526040808220905163fd74ec0960e01b815260609290309063fd74ec0990611ddc908b90600401613fdc565b60006040518083038186803b158015611df457600080fd5b505afa158015611e08573d6000803e3d6000fd5b505050506040513d6000823e601f3d908101601f19168201604052611e3091908101906134bc565b9050611e3b8261245f565b8160e00151611e4a9190614112565b8510611e685760405162461bcd60e51b815260040161039a90613e12565b6000856001600160401b03811115611e9057634e487b7160e01b600052604160045260246000fd5b604051908082528060200260200182016040528015611eb9578160200160208202803683370190505b50905060005b8681101561211e57611ed08461265d565b60006080611edd8661245f565b611ee8911b8c6140bb565b9050611f16816000600c018c604051611f019190613757565b90815260405190819003602001902090612666565b506000818152600d602090815260409091208b51611f36928d0190612d16565b50611f3f612d9a565b6040805160a081018252838152815160208181018452600080835281840192835283850181905260608401869052608084018a9052868152600b825293909320825181559051805192939192611f9b9260018501920190612d16565b506040828101516002830155606083015151600383015560808301518051600484019081556020808301516005860180546001600160a01b0319166001600160a01b03909216919091179055928201518051929391926120019260068701920190612d16565b506060820151805161201d916003840191602090910190612d16565b50608082015160048083019190915560a0830151600583015560c083015151600683015560e083015160078301556101008301516008830180549192909160ff191690600190849081111561208257634e487b7160e01b600052602160045260246000fd5b021790555061012082015181600901555050905050818484815181106120b857634e487b7160e01b600052603260045260246000fd5b6020026020010181815250506120d18d8360018b612672565b817f6bb7ff708619ba0610cba295a58592e0451dee2622938c8755667688daf3529b8b604051612101919061390e565b60405180910390a25050808061211690614194565b915050611ebf565b509998505050505050505050565b7fb31c2c74f86ca3ce94d901f5f5bbe66f7161eec2f7b5aa0b75a86371436424ea90565b60006105e28261245f565b61216d846001600160a01b0316612642565b1561226b5760405163bc197c8160e01b81526001600160a01b0385169063bc197c81906121a690899089908890889088906004016137a4565b602060405180830381600087803b1580156121c057600080fd5b505af19250505080156121f0575060408051601f3d908101601f191682019092526121ed918101906133b4565b60015b612239576121fc6141e1565b806122075750612221565b8060405162461bcd60e51b815260040161039a919061390e565b60405162461bcd60e51b815260040161039a90613958565b6001600160e01b0319811663bc197c8160e01b146122695760405162461bcd60e51b815260040161039a90613a1d565b505b505050505050565b6001600160a01b0384166122995760405162461bcd60e51b815260040161039a90613cc4565b6122a7868686868686612746565b60006122b1611cb3565b905060005b845181101561239d5760008582815181106122e157634e487b7160e01b600052603260045260246000fd5b60200260200101519050600085838151811061230d57634e487b7160e01b600052603260045260246000fd5b602090810291909101810151600084815286835260408082206001600160a01b038e16835290935291822080549193508392909161234c908490614112565b90915550506000828152602085815260408083206001600160a01b038c168452909152812080548392906123819084906140bb565b925050819055505050808061239590614194565b9150506122b6565b50846001600160a01b0316866001600160a01b0316886001600160a01b03167f4a39dc06d4c0dbc64b70af90fd698a233a518aa5d07e595d983b8c0526c8f7fb87876040516123ed9291906138a7565b60405180910390a450505050505050565b600060143610801590612415575061241533612914565b15612429575060131936013560601c61242c565b50335b90565b60006113a582846140f3565b60006113a582846140d3565b60006113a58284614112565b60006113a58383612939565b5490565b612475846001600160a01b0316612642565b1561226b5760405163f23a6e6160e01b81526001600160a01b0385169063f23a6e61906124ae9089908990889088908890600401613802565b602060405180830381600087803b1580156124c857600080fd5b505af19250505080156124f8575060408051601f3d908101601f191682019092526124f5918101906133b4565b60015b612504576121fc6141e1565b6001600160e01b0319811663f23a6e6160e01b146122695760405162461bcd60e51b815260040161039a90613a1d565b6001600160a01b03841661255a5760405162461bcd60e51b815260040161039a90613cc4565b61257886868661256987612992565b61257287612992565b86612746565b6000612582611cb3565b6000858152602082815260408083206001600160a01b038b1684529091528120805492935085929091906125b7908490614112565b90915550506000848152602082815260408083206001600160a01b0389168452909152812080548592906125ec9084906140bb565b92505081905550846001600160a01b0316866001600160a01b0316886001600160a01b03167fc3d58168c5ae7397731d063d5bbf3d657854427343f4c083240f7aacaa2d0f6287876040516123ed929190614024565b3b151590565b60006113a582612657856129eb565b90612a1b565b80546001019055565b60006113a58383612a66565b6001600160a01b0384166126985760405162461bcd60e51b815260040161039a90613f9b565b6126a83360008661256987612992565b60006126b2611cb3565b6000858152602091825260408082206001600160a01b0389168352928390528120805492935085929091906126e89084906140bb565b90915550506040516001600160a01b0386169060009033907fc3d58168c5ae7397731d063d5bbf3d657854427343f4c083240f7aacaa2d0f629061272f9089908990614024565b60405180910390a461065f33600087878787612463565b61275486868686868661226b565b836001600160a01b0316856001600160a01b03161461226b57600061277761212c565b6001600160a01b038088166000908152600283016020526040808220928916825281209293506001840192905b87518110156129075760008782815181106127cf57634e487b7160e01b600052603260045260246000fd5b6020026020010151905060008111156128f457600089838151811061280457634e487b7160e01b600052603260045260246000fd5b6020026020010151905060006001600160a01b03168c6001600160a01b0316141561285257600081815260208890526040812080548492906128479084906140bb565b909155506128889050565b8161285d8d83610372565b141561288857600081815260208790526040902061287b908d612ab0565b506128868582612ac5565b505b6001600160a01b038b166128bf57600081815260208890526040812080548492906128b4908490614112565b909155506128f29050565b6128c98b82610372565b6128f25760008181526020879052604090206128e5908c612ad1565b506128f08482612666565b505b505b50806128ff81614194565b9150506127a4565b5050505050505050505050565b60008061291f612ae6565b600301546001600160a01b03848116911614915050919050565b8154600090821061295c5760405162461bcd60e51b815260040161039a906139db565b82600001828154811061297f57634e487b7160e01b600052603260045260246000fd5b9060005260206000200154905092915050565b604080516001808252818301909252606091600091906020808301908036833701905050905082816000815181106129da57634e487b7160e01b600052603260045260246000fd5b602090810291909101015292915050565b6000816040516020016129fe9190613773565b604051602081830303815290604052805190602001209050919050565b60008151604114612a3e5760405162461bcd60e51b815260040161039a90613a65565b60208201516040830151606084015160001a612a5c86828585612aeb565b9695505050505050565b6000612a728383612be1565b612aa8575081546001818101845560008481526020808220909301849055845484825282860190935260409020919091556103ce565b5060006103ce565b60006113a5836001600160a01b038416612bf9565b60006113a58383612bf9565b60006113a5836001600160a01b038416612a66565b600090565b60007f7fffffffffffffffffffffffffffffff5d576e7357a4501ddfe92f46681b20a0821115612b2d5760405162461bcd60e51b815260040161039a90613c82565b8360ff16601b1480612b4257508360ff16601c145b612b5e5760405162461bcd60e51b815260040161039a90613d51565b600060018686868660405160008152602001604052604051612b8394939291906138f0565b6020604051602081039080840390855afa158015612ba5573d6000803e3d6000fd5b5050604051601f1901519150506001600160a01b038116612bd85760405162461bcd60e51b815260040161039a90613921565b95945050505050565b60009081526001919091016020526040902054151590565b60008181526001830160205260408120548015612d0c576000612c1d600183614112565b8554909150600090612c3190600190614112565b90506000866000018281548110612c5857634e487b7160e01b600052603260045260246000fd5b9060005260206000200154905080876000018481548110612c8957634e487b7160e01b600052603260045260246000fd5b600091825260209091200155612ca08360016140bb565b60008281526001890160205260409020558654879080612cd057634e487b7160e01b600052603160045260246000fd5b600190038181906000526020600020016000905590558660010160008781526020019081526020016000206000905560019450505050506103ce565b60009150506103ce565b828054612d2290614159565b90600052602060002090601f016020900481019282612d445760008555612d8a565b82601f10612d5d57805160ff1916838001178555612d8a565b82800160010185558215612d8a579182015b82811115612d8a578251825591602001919060010190612d6f565b50612d96929150612dad565b5090565b6040518060200160405280600081525090565b5b80821115612d965760008155600101612dae565b80516105e581614285565b600082601f830112612ddd578081fd5b81356020612df2612ded83614071565b614048565b8281528181019085830183850287018401881015612e0e578586fd5b855b85811015612e2c57813584529284019290840190600101612e10565b5090979650505050505050565b60008083601f840112612e4a578182fd5b5081356001600160401b03811115612e60578182fd5b602083019150836020828501011115612e7857600080fd5b9250929050565b600082601f830112612e8f578081fd5b8135612e9d612ded82614094565b818152846020838601011115612eb1578283fd5b816020850160208301379081016020019190915292915050565b8051600581106105e557600080fd5b600082601f830112612eea578081fd5b8151612ef8612ded82614094565b818152846020838601011115612f0c578283fd5b612f1d826020830160208701614129565b949350505050565b600060208284031215612f36578081fd5b604051602081018181106001600160401b0382111715612f5857612f586141c5565b6040529151825250919050565b600060208284031215612f76578081fd5b81356113a581614285565b60008060408385031215612f93578081fd5b8235612f9e81614285565b91506020830135612fae81614285565b809150509250929050565b600080600080600060a08688031215612fd0578081fd5b8535612fdb81614285565b94506020860135612feb81614285565b935060408601356001600160401b0380821115613006578283fd5b61301289838a01612dcd565b94506060880135915080821115613027578283fd5b61303389838a01612dcd565b93506080880135915080821115613048578283fd5b5061305588828901612e7f565b9150509295509295909350565b600080600080600060a08688031215613079578283fd5b853561308481614285565b9450602086013561309481614285565b9350604086013592506060860135915060808601356001600160401b038111156130bc578182fd5b61305588828901612e7f565b600080604083850312156130da578182fd5b82356130e581614285565b915060208301358015158114612fae578182fd5b60008060008060008060006080888a031215613113578485fd5b873561311e81614285565b965060208801356001600160401b0380821115613139578687fd5b6131458b838c01612e39565b909850965060408a013591508082111561315d578384fd5b6131698b838c01612e39565b909650945060608a0135915080821115613181578384fd5b5061318e8a828b01612e39565b989b979a50959850939692959293505050565b60008060008060008060a087890312156131b9578384fd5b86356131c481614285565b955060208701356001600160401b03808211156131df578586fd5b6131eb8a838b01612e7f565b96506040890135915080821115613200578586fd5b61320c8a838b01612e7f565b9550606089013594506080890135915080821115613228578384fd5b5061323589828a01612e39565b979a9699509497509295939492505050565b60008060008060006080868803121561325e578283fd5b853561326981614285565b945060208601356001600160401b0380821115613284578485fd5b61329089838a01612e7f565b95506040880135945060608801359150808211156132ac578283fd5b506132b988828901612e39565b969995985093965092949392505050565b600080604083850312156132dc578182fd5b82356132e781614285565b946020939093013593505050565b60008060408385031215613307578182fd5b82356001600160401b038082111561331d578384fd5b818501915085601f830112613330578384fd5b81356020613340612ded83614071565b82815281810190858301838502870184018b101561335c578889fd5b8896505b8487101561338757803561337381614285565b835260019690960195918301918301613360565b509650508601359250508082111561339d578283fd5b506133aa85828601612dcd565b9150509250929050565b6000602082840312156133c5578081fd5b81516001600160e01b0319811681146113a5578182fd5b6000602082840312156133ed578081fd5b81356001600160401b03811115613402578182fd5b612f1d84828501612e7f565b60008060408385031215613420578182fd5b82356001600160401b03811115613435578283fd5b61344185828601612e7f565b95602094909401359450505050565b60008060008060608587031215613465578182fd5b84356001600160401b038082111561347b578384fd5b61348788838901612e7f565b95506020870135945060408701359150808211156134a3578384fd5b506134b087828801612e39565b95989497509550505050565b6000602082840312156134cd578081fd5b81516001600160401b03808211156134e3578283fd5b81840191506101408083870312156134f9578384fd5b61350281614048565b90508251815261351460208401612dc2565b602082015260408301518281111561352a578485fd5b61353687828601612eda565b60408301525060608301518281111561354d578485fd5b61355987828601612eda565b6060830152506080830151608082015260a083015160a08201526135808660c08501612f25565b60c082015260e083015160e0820152610100915061359f828401612ecb565b9181019190915261012091820151918101919091529392505050565b6000602082840312156135cc578081fd5b5035919050565b600080600080600080608087890312156135eb578384fd5b8635955060208701356001600160401b0380821115613608578586fd5b818901915089601f83011261361b578586fd5b813581811115613629578687fd5b8a6020808302850101111561363c578687fd5b60208301975080965050604089013594506060890135915080821115613228578384fd5b600080600060608486031215613674578081fd5b505081359360208301359350604090920135919050565b6000815180845260208085019450808401835b838110156136ba5781518752958201959082019060010161369e565b509495945050505050565b600081518084526136dd816020860160208601614129565b601f01601f19169290920160200192915050565b6001600160f81b03198781168252861660018201526bffffffffffffffffffffffff19606086811b8216600284015285901b166016820152825160009061373f81602a850160208801614129565b602a920191820192909252604a019695505050505050565b60008251613769818460208701614129565b9190910192915050565b7f19457468657265756d205369676e6564204d6573736167653a0a3332000000008152601c810191909152603c0190565b6001600160a01b0386811682528516602082015260a0604082018190526000906137d09083018661368b565b82810360608401526137e2818661368b565b905082810360808401526137f681856136c5565b98975050505050505050565b6001600160a01b03868116825285166020820152604081018490526060810183905260a06080820181905260009061383c908301846136c5565b979650505050505050565b6020808252825182820181905260009190848201906040850190845b818110156138885783516001600160a01b031683529284019291840191600101613863565b50909695505050505050565b6000602082526113a5602083018461368b565b6000604082526138ba604083018561368b565b8281036020840152612bd8818561368b565b901515815260200190565b600083825260406020830152612f1d60408301846136c5565b93845260ff9290921660208401526040830152606082015260800190565b6000602082526113a560208301846136c5565b60208082526018908201527f45434453413a20696e76616c6964207369676e61747572650000000000000000604082015260600190565b60208082526034908201527f455243313135353a207472616e7366657220746f206e6f6e20455243313135356040820152732932b1b2b4bb32b91034b6b83632b6b2b73a32b960611b606082015260800190565b602080825260159082015274105b5bdd5b9d081cd95b9d081d1bdbc81cdb585b1b605a1b604082015260600190565b60208082526022908201527f456e756d657261626c655365743a20696e646578206f7574206f6620626f756e604082015261647360f01b606082015260800190565b60208082526028908201527f455243313135353a204552433131353552656365697665722072656a656374656040820152676420746f6b656e7360c01b606082015260800190565b6020808252601f908201527f45434453413a20696e76616c6964207369676e6174757265206c656e67746800604082015260600190565b6020808252602b908201527f455243313135353a2062616c616e636520717565727920666f7220746865207a60408201526a65726f206164647265737360a81b606082015260800190565b60208082526031908201527f455243313135353a2062617463682062616c616e636520717565727920666f7260408201527020746865207a65726f206164647265737360781b606082015260800190565b60208082526032908201527f416d6f756e742072657175657374656420646f6573206e6f74206d61746368206040820152716e756d626572206f6620746f6b656e49647360701b606082015260800190565b6020808252601a908201527f7468697320746f6b656e20646f6573206e6f7420657869737421000000000000604082015260600190565b60208082526029908201527f455243313135353a2063616c6c6572206973206e6f74206f776e6572206e6f7260408201526808185c1c1c9bdd995960ba1b606082015260800190565b60208082526021908201527f6f6e6c7920746865206f776e65722063616e20736574207468652070726963656040820152602160f81b606082015260800190565b6020808252601e908201527f74686973206368616c6c656e676520646f6573206e6f74206578697374210000604082015260600190565b60208082526022908201527f45434453413a20696e76616c6964207369676e6174757265202773272076616c604082015261756560f01b606082015260800190565b60208082526025908201527f455243313135353a207472616e7366657220746f20746865207a65726f206164604082015264647265737360d81b606082015260800190565b60208082526028908201527f7468697320616d6f756e7420726571756573746564206973206f76657220746860408201526765206c696d69742160c01b606082015260800190565b60208082526022908201527f45434453413a20696e76616c6964207369676e6174757265202776272076616c604082015261756560f01b606082015260800190565b6020808252601a908201527f6f6e6c7920746865206174686c6574652063616e206d696e7421000000000000604082015260600190565b60208082526028908201527f74686973206368616c6c656e676520646f6573206e6f742068617665206120706040820152671c9a58d9481cd95d60c21b606082015260800190565b6020808252601f908201527f43616e6e6f74206d696e74206d6f7265207468616e20746865206c696d697400604082015260600190565b60208082526021908201527f74686973206368616c6c656e6765206973206f76657220746865206c696d69746040820152602160f81b606082015260800190565b6020808252601a908201527f7468697320746f6b656e206973206e6f7420666f722073616c65000000000000604082015260600190565b60208082526029908201527f455243313135353a2073657474696e6720617070726f76616c20737461747573604082015268103337b91039b2b63360b91b606082015260800190565b60208082526029908201527f455243313135353a206163636f756e747320616e6420696473206c656e677468604082015268040dad2e6dac2e8c6d60bb1b606082015260800190565b60208082526028908201527f455243313135353a2069647320616e6420616d6f756e7473206c656e677468206040820152670dad2e6dac2e8c6d60c31b606082015260800190565b60208082526021908201527f455243313135353a206d696e7420746f20746865207a65726f206164647265736040820152607360f81b606082015260800190565b90815260200190565b600086825260a06020830152613ffe60a08301876136c5565b6001600160a01b0395909516604083015250606081019290925260809091015292915050565b918252602082015260400190565b9283526020830191909152604082015260600190565b6040518181016001600160401b0381118282101715614069576140696141c5565b604052919050565b60006001600160401b0382111561408a5761408a6141c5565b5060209081020190565b60006001600160401b038211156140ad576140ad6141c5565b50601f01601f191660200190565b600082198211156140ce576140ce6141af565b500190565b6000826140ee57634e487b7160e01b81526012600452602481fd5b500490565b600081600019048311821515161561410d5761410d6141af565b500290565b600082821015614124576141246141af565b500390565b60005b8381101561414457818101518382015260200161412c565b83811115614153576000848401525b50505050565b60028104600182168061416d57607f821691505b6020821081141561418e57634e487b7160e01b600052602260045260246000fd5b50919050565b60006000198214156141a8576141a86141af565b5060010190565b634e487b7160e01b600052601160045260246000fd5b634e487b7160e01b600052604160045260246000fd5b60e01c90565b600060443d10156141f15761242c565b600481823e6308c379a061420582516141db565b1461420f5761242c565b6040513d600319016004823e80513d6001600160401b03816024840111818411171561423e575050505061242c565b82840192508251915080821115614258575050505061242c565b503d830160208284010111156142705750505061242c565b601f01601f1916810160200160405291505090565b6001600160a01b038116811461429a57600080fd5b5056fea26469706673582212208f79791ba77a6b54ca27c8285fb7014f7d7fefc6aca1659e788a181624cea0f364736f6c63430008000033",
  "devdoc": {
    "kind": "dev",
    "methods": {
      "balanceOf(address,uint256)": {
        "details": "Returns the amount of tokens of token type `id` owned by `account`. Requirements: - `account` cannot be the zero address."
      },
      "balanceOfBatch(address[],uint256[])": {
        "details": "xref:ROOT:erc1155.adoc#batch-operations[Batched] version of {balanceOf}. Requirements: - `accounts` and `ids` must have the same length."
      },
      "isApprovedForAll(address,address)": {
        "details": "Returns true if `operator` is approved to transfer ``account``'s tokens. See {setApprovalForAll}."
      },
      "safeBatchTransferFrom(address,address,uint256[],uint256[],bytes)": {
        "details": "xref:ROOT:erc1155.adoc#batch-operations[Batched] version of {safeTransferFrom}. Emits a {TransferBatch} event. Requirements: - `ids` and `amounts` must have the same length. - If `to` refers to a smart contract, it must implement {IERC1155Receiver-onERC1155BatchReceived} and return the acceptance magic value."
      },
      "safeTransferFrom(address,address,uint256,uint256,bytes)": {
        "details": "Transfers `amount` tokens of token type `id` from `from` to `to`. Emits a {TransferSingle} event. Requirements: - `to` cannot be the zero address. - If the caller is not `from`, it must be have been approved to spend ``from``'s tokens via {setApprovalForAll}. - `from` must have a balance of tokens of type `id` of at least `amount`. - If `to` refers to a smart contract, it must implement {IERC1155Receiver-onERC1155Received} and return the acceptance magic value."
      }
    },
    "version": 1
  },
  "userdoc": {
    "kind": "user",
    "methods": {},
    "version": 1
  },
  "storageLayout": {
    "storage": [
      {
        "astId": 1482,
        "contract": "src/facets/ChallengeTokenFacet.sol:ChallengeTokenFacet",
        "label": "cs",
        "offset": 0,
        "slot": "0",
        "type": "t_struct(ChallengeStorage)4965_storage"
      }
    ],
    "types": {
      "t_address": {
        "encoding": "inplace",
        "label": "address",
        "numberOfBytes": "20"
      },
      "t_address_payable": {
        "encoding": "inplace",
        "label": "address payable",
        "numberOfBytes": "20"
      },
      "t_array(t_bytes32)dyn_storage": {
        "base": "t_bytes32",
        "encoding": "dynamic_array",
        "label": "bytes32[]",
        "numberOfBytes": "32"
      },
      "t_bool": {
        "encoding": "inplace",
        "label": "bool",
        "numberOfBytes": "1"
      },
      "t_bytes32": {
        "encoding": "inplace",
        "label": "bytes32",
        "numberOfBytes": "32"
      },
      "t_bytes_storage": {
        "encoding": "bytes",
        "label": "bytes",
        "numberOfBytes": "32"
      },
      "t_enum(Status)4870": {
        "encoding": "inplace",
        "label": "enum Status",
        "numberOfBytes": "1"
      },
      "t_mapping(t_address,t_mapping(t_address,t_uint256))": {
        "encoding": "mapping",
        "key": "t_address",
        "label": "mapping(address => mapping(address => uint256))",
        "numberOfBytes": "32",
        "value": "t_mapping(t_address,t_uint256)"
      },
      "t_mapping(t_address,t_struct(UintSet)7404_storage)": {
        "encoding": "mapping",
        "key": "t_address",
        "label": "mapping(address => struct EnumerableSet.UintSet)",
        "numberOfBytes": "32",
        "value": "t_struct(UintSet)7404_storage"
      },
      "t_mapping(t_address,t_uint256)": {
        "encoding": "mapping",
        "key": "t_address",
        "label": "mapping(address => uint256)",
        "numberOfBytes": "32",
        "value": "t_uint256"
      },
      "t_mapping(t_bytes32,t_uint256)": {
        "encoding": "mapping",
        "key": "t_bytes32",
        "label": "mapping(bytes32 => uint256)",
        "numberOfBytes": "32",
        "value": "t_uint256"
      },
      "t_mapping(t_string_memory_ptr,t_struct(UintSet)7404_storage)": {
        "encoding": "mapping",
        "key": "t_string_memory_ptr",
        "label": "mapping(string => struct EnumerableSet.UintSet)",
        "numberOfBytes": "32",
        "value": "t_struct(UintSet)7404_storage"
      },
      "t_mapping(t_string_memory_ptr,t_uint256)": {
        "encoding": "mapping",
        "key": "t_string_memory_ptr",
        "label": "mapping(string => uint256)",
        "numberOfBytes": "32",
        "value": "t_uint256"
      },
      "t_mapping(t_uint256,t_string_storage)": {
        "encoding": "mapping",
        "key": "t_uint256",
        "label": "mapping(uint256 => string)",
        "numberOfBytes": "32",
        "value": "t_string_storage"
      },
      "t_mapping(t_uint256,t_struct(Challenge)4893_storage)": {
        "encoding": "mapping",
        "key": "t_uint256",
        "label": "mapping(uint256 => struct Challenge)",
        "numberOfBytes": "32",
        "value": "t_struct(Challenge)4893_storage"
      },
      "t_mapping(t_uint256,t_struct(ChallengeToken)4906_storage)": {
        "encoding": "mapping",
        "key": "t_uint256",
        "label": "mapping(uint256 => struct ChallengeToken)",
        "numberOfBytes": "32",
        "value": "t_struct(ChallengeToken)4906_storage"
      },
      "t_mapping(t_uint256,t_struct(Counter)6934_storage)": {
        "encoding": "mapping",
        "key": "t_uint256",
        "label": "mapping(uint256 => struct Counters.Counter)",
        "numberOfBytes": "32",
        "value": "t_struct(Counter)6934_storage"
      },
      "t_string_memory_ptr": {
        "encoding": "bytes",
        "label": "string",
        "numberOfBytes": "32"
      },
      "t_string_storage": {
        "encoding": "bytes",
        "label": "string",
        "numberOfBytes": "32"
      },
      "t_struct(Challenge)4893_storage": {
        "encoding": "inplace",
        "label": "struct Challenge",
        "members": [
          {
            "astId": 4872,
            "contract": "src/facets/ChallengeTokenFacet.sol:ChallengeTokenFacet",
            "label": "id",
            "offset": 0,
            "slot": "0",
            "type": "t_uint256"
          },
          {
            "astId": 4874,
            "contract": "src/facets/ChallengeTokenFacet.sol:ChallengeTokenFacet",
            "label": "athlete",
            "offset": 0,
            "slot": "1",
            "type": "t_address_payable"
          },
          {
            "astId": 4876,
            "contract": "src/facets/ChallengeTokenFacet.sol:ChallengeTokenFacet",
            "label": "jsonUrl",
            "offset": 0,
            "slot": "2",
            "type": "t_string_storage"
          },
          {
            "astId": 4878,
            "contract": "src/facets/ChallengeTokenFacet.sol:ChallengeTokenFacet",
            "label": "challengeUrl",
            "offset": 0,
            "slot": "3",
            "type": "t_string_storage"
          },
          {
            "astId": 4880,
            "contract": "src/facets/ChallengeTokenFacet.sol:ChallengeTokenFacet",
            "label": "teamCount",
            "offset": 0,
            "slot": "4",
            "type": "t_uint256"
          },
          {
            "astId": 4882,
            "contract": "src/facets/ChallengeTokenFacet.sol:ChallengeTokenFacet",
            "label": "challengePrice",
            "offset": 0,
            "slot": "5",
            "type": "t_uint256"
          },
          {
            "astId": 4885,
            "contract": "src/facets/ChallengeTokenFacet.sol:ChallengeTokenFacet",
            "label": "challengePriceNonce",
            "offset": 0,
            "slot": "6",
            "type": "t_struct(Counter)6934_storage"
          },
          {
            "astId": 4887,
            "contract": "src/facets/ChallengeTokenFacet.sol:ChallengeTokenFacet",
            "label": "limit",
            "offset": 0,
            "slot": "7",
            "type": "t_uint256"
          },
          {
            "astId": 4890,
            "contract": "src/facets/ChallengeTokenFacet.sol:ChallengeTokenFacet",
            "label": "status",
            "offset": 0,
            "slot": "8",
            "type": "t_enum(Status)4870"
          },
          {
            "astId": 4892,
            "contract": "src/facets/ChallengeTokenFacet.sol:ChallengeTokenFacet",
            "label": "donatedFunds",
            "offset": 0,
            "slot": "9",
            "type": "t_uint256"
          }
        ],
        "numberOfBytes": "320"
      },
      "t_struct(ChallengeStorage)4965_storage": {
        "encoding": "inplace",
        "label": "struct ChallengeStorage",
        "members": [
          {
            "astId": 4908,
            "contract": "src/facets/ChallengeTokenFacet.sol:ChallengeTokenFacet",
            "label": "dao",
            "offset": 0,
            "slot": "0",
            "type": "t_address"
          },
          {
            "astId": 4910,
            "contract": "src/facets/ChallengeTokenFacet.sol:ChallengeTokenFacet",
            "label": "checkSignatureFlag",
            "offset": 20,
            "slot": "0",
            "type": "t_bool"
          },
          {
            "astId": 4912,
            "contract": "src/facets/ChallengeTokenFacet.sol:ChallengeTokenFacet",
            "label": "challengeFacet",
            "offset": 0,
            "slot": "1",
            "type": "t_address"
          },
          {
            "astId": 4914,
            "contract": "src/facets/ChallengeTokenFacet.sol:ChallengeTokenFacet",
            "label": "challengeTokenFacet",
            "offset": 0,
            "slot": "2",
            "type": "t_address"
          },
          {
            "astId": 4916,
            "contract": "src/facets/ChallengeTokenFacet.sol:ChallengeTokenFacet",
            "label": "trustedForwarder",
            "offset": 0,
            "slot": "3",
            "type": "t_address"
          },
          {
            "astId": 4918,
            "contract": "src/facets/ChallengeTokenFacet.sol:ChallengeTokenFacet",
            "label": "athleteTake",
            "offset": 0,
            "slot": "4",
            "type": "t_uint256"
          },
          {
            "astId": 4921,
            "contract": "src/facets/ChallengeTokenFacet.sol:ChallengeTokenFacet",
            "label": "totalChallenges",
            "offset": 0,
            "slot": "5",
            "type": "t_struct(Counter)6934_storage"
          },
          {
            "astId": 4926,
            "contract": "src/facets/ChallengeTokenFacet.sol:ChallengeTokenFacet",
            "label": "_athleteChallenges",
            "offset": 0,
            "slot": "6",
            "type": "t_mapping(t_address,t_struct(UintSet)7404_storage)"
          },
          {
            "astId": 4932,
            "contract": "src/facets/ChallengeTokenFacet.sol:ChallengeTokenFacet",
            "label": "donations",
            "offset": 0,
            "slot": "7",
            "type": "t_mapping(t_address,t_mapping(t_address,t_uint256))"
          },
          {
            "astId": 4936,
            "contract": "src/facets/ChallengeTokenFacet.sol:ChallengeTokenFacet",
            "label": "donationTotals",
            "offset": 0,
            "slot": "8",
            "type": "t_mapping(t_address,t_uint256)"
          },
          {
            "astId": 4940,
            "contract": "src/facets/ChallengeTokenFacet.sol:ChallengeTokenFacet",
            "label": "challengeIdByChallengeUrl",
            "offset": 0,
            "slot": "9",
            "type": "t_mapping(t_string_memory_ptr,t_uint256)"
          },
          {
            "astId": 4945,
            "contract": "src/facets/ChallengeTokenFacet.sol:ChallengeTokenFacet",
            "label": "_challengeById",
            "offset": 0,
            "slot": "10",
            "type": "t_mapping(t_uint256,t_struct(Challenge)4893_storage)"
          },
          {
            "astId": 4950,
            "contract": "src/facets/ChallengeTokenFacet.sol:ChallengeTokenFacet",
            "label": "_challengeTokenById",
            "offset": 0,
            "slot": "11",
            "type": "t_mapping(t_uint256,t_struct(ChallengeToken)4906_storage)"
          },
          {
            "astId": 4955,
            "contract": "src/facets/ChallengeTokenFacet.sol:ChallengeTokenFacet",
            "label": "_challengeTokens",
            "offset": 0,
            "slot": "12",
            "type": "t_mapping(t_string_memory_ptr,t_struct(UintSet)7404_storage)"
          },
          {
            "astId": 4959,
            "contract": "src/facets/ChallengeTokenFacet.sol:ChallengeTokenFacet",
            "label": "tokenChallenge",
            "offset": 0,
            "slot": "13",
            "type": "t_mapping(t_uint256,t_string_storage)"
          },
          {
            "astId": 4964,
            "contract": "src/facets/ChallengeTokenFacet.sol:ChallengeTokenFacet",
            "label": "_tokenIndexByChallengeId",
            "offset": 0,
            "slot": "14",
            "type": "t_mapping(t_uint256,t_struct(Counter)6934_storage)"
          }
        ],
        "numberOfBytes": "480"
      },
      "t_struct(ChallengeToken)4906_storage": {
        "encoding": "inplace",
        "label": "struct ChallengeToken",
        "members": [
          {
            "astId": 4895,
            "contract": "src/facets/ChallengeTokenFacet.sol:ChallengeTokenFacet",
            "label": "id",
            "offset": 0,
            "slot": "0",
            "type": "t_uint256"
          },
          {
            "astId": 4897,
            "contract": "src/facets/ChallengeTokenFacet.sol:ChallengeTokenFacet",
            "label": "signature",
            "offset": 0,
            "slot": "1",
            "type": "t_bytes_storage"
          },
          {
            "astId": 4899,
            "contract": "src/facets/ChallengeTokenFacet.sol:ChallengeTokenFacet",
            "label": "price",
            "offset": 0,
            "slot": "2",
            "type": "t_uint256"
          },
          {
            "astId": 4902,
            "contract": "src/facets/ChallengeTokenFacet.sol:ChallengeTokenFacet",
            "label": "priceNonce",
            "offset": 0,
            "slot": "3",
            "type": "t_struct(Counter)6934_storage"
          },
          {
            "astId": 4905,
            "contract": "src/facets/ChallengeTokenFacet.sol:ChallengeTokenFacet",
            "label": "challenge",
            "offset": 0,
            "slot": "4",
            "type": "t_struct(Challenge)4893_storage"
          }
        ],
        "numberOfBytes": "448"
      },
      "t_struct(Counter)6934_storage": {
        "encoding": "inplace",
        "label": "struct Counters.Counter",
        "members": [
          {
            "astId": 6933,
            "contract": "src/facets/ChallengeTokenFacet.sol:ChallengeTokenFacet",
            "label": "_value",
            "offset": 0,
            "slot": "0",
            "type": "t_uint256"
          }
        ],
        "numberOfBytes": "32"
      },
      "t_struct(Set)7000_storage": {
        "encoding": "inplace",
        "label": "struct EnumerableSet.Set",
        "members": [
          {
            "astId": 6995,
            "contract": "src/facets/ChallengeTokenFacet.sol:ChallengeTokenFacet",
            "label": "_values",
            "offset": 0,
            "slot": "0",
            "type": "t_array(t_bytes32)dyn_storage"
          },
          {
            "astId": 6999,
            "contract": "src/facets/ChallengeTokenFacet.sol:ChallengeTokenFacet",
            "label": "_indexes",
            "offset": 0,
            "slot": "1",
            "type": "t_mapping(t_bytes32,t_uint256)"
          }
        ],
        "numberOfBytes": "64"
      },
      "t_struct(UintSet)7404_storage": {
        "encoding": "inplace",
        "label": "struct EnumerableSet.UintSet",
        "members": [
          {
            "astId": 7403,
            "contract": "src/facets/ChallengeTokenFacet.sol:ChallengeTokenFacet",
            "label": "_inner",
            "offset": 0,
            "slot": "0",
            "type": "t_struct(Set)7000_storage"
          }
        ],
        "numberOfBytes": "64"
      },
      "t_uint256": {
        "encoding": "inplace",
        "label": "uint256",
        "numberOfBytes": "32"
      }
    }
  }
}