{
  "address": "0x460A399920F4e7dD4Ef6917182E2581fe1470477",
  "abi": [
    {
      "anonymous": false,
      "inputs": [
        {
          "indexed": false,
          "internalType": "uint256",
          "name": "id",
          "type": "uint256"
        },
        {
          "indexed": false,
          "internalType": "enum Status",
          "name": "status",
          "type": "uint8"
        }
      ],
      "name": "ChallengeResolved",
      "type": "event"
    },
    {
      "anonymous": false,
      "inputs": [
        {
          "indexed": false,
          "internalType": "uint256",
          "name": "id",
          "type": "uint256"
        },
        {
          "indexed": false,
          "internalType": "address",
          "name": "athlete",
          "type": "address"
        },
        {
          "indexed": false,
          "internalType": "string",
          "name": "challengeUrl",
          "type": "string"
        },
        {
          "indexed": false,
          "internalType": "string",
          "name": "jsonUrl",
          "type": "string"
        },
        {
          "indexed": false,
          "internalType": "uint256",
          "name": "teamCount",
          "type": "uint256"
        }
      ],
      "name": "CreateChallenge",
      "type": "event"
    },
    {
      "anonymous": false,
      "inputs": [
        {
          "indexed": false,
          "internalType": "uint256",
          "name": "id",
          "type": "uint256"
        },
        {
          "indexed": false,
          "internalType": "string",
          "name": "challengeUrl",
          "type": "string"
        },
        {
          "indexed": false,
          "internalType": "address",
          "name": "donator",
          "type": "address"
        },
        {
          "indexed": false,
          "internalType": "uint256",
          "name": "amount",
          "type": "uint256"
        },
        {
          "indexed": false,
          "internalType": "address",
          "name": "tokenAddress",
          "type": "address"
        }
      ],
      "name": "Donate",
      "type": "event"
    },
    {
      "anonymous": false,
      "inputs": [
        {
          "indexed": false,
          "internalType": "uint256",
          "name": "id",
          "type": "uint256"
        },
        {
          "indexed": false,
          "internalType": "string",
          "name": "challengeUrl",
          "type": "string"
        },
        {
          "indexed": false,
          "internalType": "address",
          "name": "challenger",
          "type": "address"
        },
        {
          "indexed": false,
          "internalType": "uint256",
          "name": "amount",
          "type": "uint256"
        },
        {
          "indexed": false,
          "internalType": "address",
          "name": "tokenAddress",
          "type": "address"
        }
      ],
      "name": "Withdraw",
      "type": "event"
    },
    {
      "anonymous": false,
      "inputs": [
        {
          "indexed": false,
          "internalType": "string",
          "name": "challengeUrl",
          "type": "string"
        },
        {
          "indexed": false,
          "internalType": "uint256",
          "name": "price",
          "type": "uint256"
        }
      ],
      "name": "newChallengePrice",
      "type": "event"
    },
    {
      "inputs": [
        {
          "internalType": "string",
          "name": "challengeUrl",
          "type": "string"
        }
      ],
      "name": "challengeInfoByChallengeUrl",
      "outputs": [
        {
          "components": [
            {
              "internalType": "uint256",
              "name": "id",
              "type": "uint256"
            },
            {
              "internalType": "address payable",
              "name": "athlete",
              "type": "address"
            },
            {
              "internalType": "string",
              "name": "jsonUrl",
              "type": "string"
            },
            {
              "internalType": "string",
              "name": "challengeUrl",
              "type": "string"
            },
            {
              "internalType": "uint256",
              "name": "teamCount",
              "type": "uint256"
            },
            {
              "internalType": "uint256",
              "name": "challengePrice",
              "type": "uint256"
            },
            {
              "components": [
                {
                  "internalType": "uint256",
                  "name": "_value",
                  "type": "uint256"
                }
              ],
              "internalType": "struct Counters.Counter",
              "name": "challengePriceNonce",
              "type": "tuple"
            },
            {
              "internalType": "uint256",
              "name": "limit",
              "type": "uint256"
            },
            {
              "internalType": "enum Status",
              "name": "status",
              "type": "uint8"
            },
            {
              "internalType": "uint256",
              "name": "donatedFunds",
              "type": "uint256"
            }
          ],
          "internalType": "struct Challenge",
          "name": "",
          "type": "tuple"
        }
      ],
      "stateMutability": "view",
      "type": "function"
    },
    {
      "inputs": [
        {
          "internalType": "uint256",
          "name": "id",
          "type": "uint256"
        }
      ],
      "name": "challengeInfoById",
      "outputs": [
        {
          "components": [
            {
              "internalType": "uint256",
              "name": "id",
              "type": "uint256"
            },
            {
              "internalType": "address payable",
              "name": "athlete",
              "type": "address"
            },
            {
              "internalType": "string",
              "name": "jsonUrl",
              "type": "string"
            },
            {
              "internalType": "string",
              "name": "challengeUrl",
              "type": "string"
            },
            {
              "internalType": "uint256",
              "name": "teamCount",
              "type": "uint256"
            },
            {
              "internalType": "uint256",
              "name": "challengePrice",
              "type": "uint256"
            },
            {
              "components": [
                {
                  "internalType": "uint256",
                  "name": "_value",
                  "type": "uint256"
                }
              ],
              "internalType": "struct Counters.Counter",
              "name": "challengePriceNonce",
              "type": "tuple"
            },
            {
              "internalType": "uint256",
              "name": "limit",
              "type": "uint256"
            },
            {
              "internalType": "enum Status",
              "name": "status",
              "type": "uint8"
            },
            {
              "internalType": "uint256",
              "name": "donatedFunds",
              "type": "uint256"
            }
          ],
          "internalType": "struct Challenge",
          "name": "challenge_",
          "type": "tuple"
        }
      ],
      "stateMutability": "view",
      "type": "function"
    },
    {
      "inputs": [
        {
          "internalType": "string",
          "name": "_challengeUrl",
          "type": "string"
        },
        {
          "internalType": "string",
          "name": "_jsonUrl",
          "type": "string"
        },
        {
          "internalType": "uint256",
          "name": "_teamCount",
          "type": "uint256"
        },
        {
          "internalType": "uint256",
          "name": "_limit",
          "type": "uint256"
        }
      ],
      "name": "createChallenge",
      "outputs": [
        {
          "internalType": "uint256",
          "name": "id_",
          "type": "uint256"
        }
      ],
      "stateMutability": "nonpayable",
      "type": "function"
    },
    {
      "inputs": [
        {
          "internalType": "string",
          "name": "_challengeUrl",
          "type": "string"
        },
        {
          "internalType": "uint256",
          "name": "_donationAmount",
          "type": "uint256"
        },
        {
          "internalType": "address",
          "name": "_depositToken",
          "type": "address"
        }
      ],
      "name": "donate",
      "outputs": [
        {
          "internalType": "uint256",
          "name": "",
          "type": "uint256"
        }
      ],
      "stateMutability": "payable",
      "type": "function"
    },
    {
      "inputs": [
        {
          "internalType": "string",
          "name": "_challengeUrl",
          "type": "string"
        },
        {
          "internalType": "uint256",
          "name": "_resolution",
          "type": "uint256"
        },
        {
          "internalType": "uint256",
          "name": "amount",
          "type": "uint256"
        }
      ],
      "name": "resolveChallenge",
      "outputs": [],
      "stateMutability": "nonpayable",
      "type": "function"
    },
    {
      "inputs": [
        {
          "internalType": "string",
          "name": "challengeUrl",
          "type": "string"
        },
        {
          "internalType": "uint256",
          "name": "price",
          "type": "uint256"
        }
      ],
      "name": "setPrice",
      "outputs": [
        {
          "internalType": "uint256",
          "name": "",
          "type": "uint256"
        }
      ],
      "stateMutability": "nonpayable",
      "type": "function"
    },
    {
      "inputs": [
        {
          "internalType": "string",
          "name": "challengeUrl",
          "type": "string"
        },
        {
          "internalType": "uint256",
          "name": "price",
          "type": "uint256"
        },
        {
          "internalType": "bytes",
          "name": "signature",
          "type": "bytes"
        }
      ],
      "name": "setPriceFromSignature",
      "outputs": [
        {
          "internalType": "uint256",
          "name": "",
          "type": "uint256"
        }
      ],
      "stateMutability": "nonpayable",
      "type": "function"
    },
    {
      "inputs": [
        {
          "internalType": "string",
          "name": "_challengeUrl",
          "type": "string"
        },
        {
          "internalType": "address[]",
          "name": "_tokenAddresses",
          "type": "address[]"
        }
      ],
      "name": "withdrawBalance",
      "outputs": [],
      "stateMutability": "nonpayable",
      "type": "function"
    },
    {
      "inputs": [
        {
          "internalType": "string",
          "name": "_challengeUrl",
          "type": "string"
        },
        {
          "internalType": "address[]",
          "name": "_tokenAddresses",
          "type": "address[]"
        }
      ],
      "name": "withdrawDonation",
      "outputs": [],
      "stateMutability": "nonpayable",
      "type": "function"
    }
  ],
  "transactionHash": "0xa7eff6c5c5737761d1a6d29dc72f2db5400d2f3b295049ef304fccc66c3723aa",
  "args": [],
  "solcInputHash": "5557da8d5fc34779c94daee94142e804",
  "bytecode": "0x608060405234801561001057600080fd5b50612eed806100206000396000f3fe6080604052600436106100865760003560e01c80637d27a495116100595780637d27a49514610123578063ae7b224714610143578063c18ed80714610156578063f352c45c14610183578063fd74ec09146101a357610086565b80630d379f721461008b57806322e01192146100ad57806341fae85d146100e35780635b6b7b4514610103575b600080fd5b34801561009757600080fd5b506100ab6100a63660046121a1565b6101c3565b005b3480156100b957600080fd5b506100cd6100c83660046122d2565b610609565b6040516100da9190612cd1565b60405180910390f35b3480156100ef57600080fd5b506100ab6100fe3660046123e7565b610890565b34801561010f57600080fd5b506100cd61011e36600461236a565b610c97565b34801561012f57600080fd5b506100ab61013e3660046121a1565b610da1565b6100cd610151366004612315565b6111a1565b34801561016257600080fd5b5061017661017136600461216e565b611332565b6040516100da9190612c1c565b34801561018f57600080fd5b506100cd61019e366004612261565b611371565b3480156101af57600080fd5b506101766101be366004612433565b611410565b600080600901836040516101d7919061250b565b908152604080519182900360209081018320546000818152600a8352838120610140860185528054865260018101546001600160a01b03169386019390935260028301805492965090949384019161022e90612e35565b80601f016020809104026020016040519081016040528092919081815260200182805461025a90612e35565b80156102a75780601f1061027c576101008083540402835291602001916102a7565b820191906000526020600020905b81548152906001019060200180831161028a57829003601f168201915b505050505081526020016003820180546102c090612e35565b80601f01602080910402602001604051908101604052809291908181526020018280546102ec90612e35565b80156103395780601f1061030e57610100808354040283529160200191610339565b820191906000526020600020905b81548152906001019060200180831161031c57829003601f168201915b505050918352505060048281015460208084019190915260058401546040808501919091528051918201905260068401548152606083015260078301546080830152600883015460a09092019160ff16908111156103a757634e487b7160e01b600052602160045260246000fd5b60048111156103c657634e487b7160e01b600052602160045260246000fd5b8152600991909101546020909101529050600281610100015160048111156103fe57634e487b7160e01b600052602160045260246000fd5b146104245760405162461bcd60e51b815260040161041b90612a43565b60405180910390fd5b600061042e611645565b905060005b8451811015610601576001600160a01b03821660009081526007602052604081208651829088908590811061047857634e487b7160e01b600052603260045260246000fd5b60200260200101516001600160a01b03166001600160a01b03168152602001908152602001600020549050600081116104c35760405162461bcd60e51b815260040161041b90612be5565b60006001600160a01b03168683815181106104ee57634e487b7160e01b600052603260045260246000fd5b60200260200101516001600160a01b03161415610541576040516001600160a01b0384169082156108fc029083906000818181858888f1935050505015801561053b573d6000803e3d6000fd5b50610588565b61058830848389868151811061056757634e487b7160e01b600052603260045260246000fd5b60200260200101516001600160a01b0316611676909392919063ffffffff16565b7f5d6a0a50e80538c808d96b677d243731a02e92f2b471106a162fd5e3e489917c858885848a87815181106105cd57634e487b7160e01b600052603260045260246000fd5b60200260200101516040516105e6959493929190612d3d565b60405180910390a150806105f981612e70565b915050610433565b505050505050565b60008060006009018460405161061f919061250b565b9081526020016040518091039020549050600081116106505760405162461bcd60e51b815260040161041b906128d4565b6000818152600a602090815260408083208151610140810183528154815260018201546001600160a01b031693810193909352600281018054919284019161069790612e35565b80601f01602080910402602001604051908101604052809291908181526020018280546106c390612e35565b80156107105780601f106106e557610100808354040283529160200191610710565b820191906000526020600020905b8154815290600101906020018083116106f357829003601f168201915b5050505050815260200160038201805461072990612e35565b80601f016020809104026020016040519081016040528092919081815260200182805461075590612e35565b80156107a25780601f10610777576101008083540402835291602001916107a2565b820191906000526020600020905b81548152906001019060200180831161078557829003601f168201915b505050918352505060048281015460208084019190915260058401546040808501919091528051918201905260068401548152606083015260078301546080830152600883015460a09092019160ff169081111561081057634e487b7160e01b600052602160045260246000fd5b600481111561082f57634e487b7160e01b600052602160045260246000fd5b81526020016009820154815250509050610847611645565b6001600160a01b031681602001516001600160a01b03161461087b5760405162461bcd60e51b815260040161041b9061280a565b805161088790856116d4565b95945050505050565b6000546001600160a01b03166108a4611645565b6001600160a01b0316146108ca5760405162461bcd60e51b815260040161041b90612776565b6000546001600160a01b03166108de611645565b6001600160a01b0316146108f157600080fd5b60008060090184604051610905919061250b565b908152604080519182900360209081018320546000818152600a8352838120610140860185528054865260018101546001600160a01b03169386019390935260028301805492965090949384019161095c90612e35565b80601f016020809104026020016040519081016040528092919081815260200182805461098890612e35565b80156109d55780601f106109aa576101008083540402835291602001916109d5565b820191906000526020600020905b8154815290600101906020018083116109b857829003601f168201915b505050505081526020016003820180546109ee90612e35565b80601f0160208091040260200160405190810160405280929190818152602001828054610a1a90612e35565b8015610a675780601f10610a3c57610100808354040283529160200191610a67565b820191906000526020600020905b815481529060010190602001808311610a4a57829003601f168201915b505050918352505060048281015460208084019190915260058401546040808501919091528051918201905260068401548152606083015260078301546080830152600883015460a09092019160ff1690811115610ad557634e487b7160e01b600052602160045260246000fd5b6004811115610af457634e487b7160e01b600052602160045260246000fd5b815260200160098201548152505090508060e001518310610b275760405162461bcd60e51b815260040161041b90612b64565b8360011415610b5f5760045b8161010001516004811115610b5857634e487b7160e01b600052602160045260246000fd5b5050610b99565b8360021415610b6f576003610b33565b60028161010001516004811115610b9657634e487b7160e01b600052602160045260246000fd5b50505b60028161010001516004811115610bc057634e487b7160e01b600052602160045260246000fd5b14610c525760208101516060820151604080840151905163fd03b8c760e01b8152309363fd03b8c793610bfa939192909190600401612558565b600060405180830381600087803b158015610c1457600080fd5b505af1158015610c28573d6000803e3d6000fd5b505050506040513d6000823e601f3d908101601f19168201604052610c509190810190612091565b505b7fb6171b34500ba874839b220ee75cbfbeb25bba762c6a57c158e19a3c27af89ae82826101000151604051610c88929190612d29565b60405180910390a15050505050565b600080600060090185604051610cad919061250b565b908152602001604051809103902054905060008111610cde5760405162461bcd60e51b815260040161041b906128d4565b6000818152600a6020526040812090601960f81b81308989610d0260068801611748565b604051602001610d17969594939291906124ab565b6040516020818303038152906040528051906020012090506000610d5382878560010160009054906101000a90046001600160a01b031661174c565b90508080610d6b5750600054600160a01b900460ff16155b610d875760405162461bcd60e51b815260040161041b9061290b565b8254610d9390886116d4565b9450505050505b9392505050565b610da961181c565b60008060090183604051610dbd919061250b565b908152604080519182900360209081018320546000818152600a8352838120610140860185528054865260018101546001600160a01b031693860193909352600283018054929650909493840191610e1490612e35565b80601f0160208091040260200160405190810160405280929190818152602001828054610e4090612e35565b8015610e8d5780601f10610e6257610100808354040283529160200191610e8d565b820191906000526020600020905b815481529060010190602001808311610e7057829003601f168201915b50505050508152602001600382018054610ea690612e35565b80601f0160208091040260200160405190810160405280929190818152602001828054610ed290612e35565b8015610f1f5780601f10610ef457610100808354040283529160200191610f1f565b820191906000526020600020905b815481529060010190602001808311610f0257829003601f168201915b505050918352505060048281015460208084019190915260058401546040808501919091528051918201905260068401548152606083015260078301546080830152600883015460a09092019160ff1690811115610f8d57634e487b7160e01b600052602160045260246000fd5b6004811115610fac57634e487b7160e01b600052602160045260246000fd5b81526009919091015460209182015281015190915060048261010001516004811115610fe857634e487b7160e01b600052602160045260246000fd5b146110055760405162461bcd60e51b815260040161041b90612a95565b60005b845181101561060157600080600801600087848151811061103957634e487b7160e01b600052603260045260246000fd5b60200260200101516001600160a01b03166001600160a01b03168152602001908152602001600020549050600081116110845760405162461bcd60e51b815260040161041b90612be5565b60006001600160a01b03168683815181106110af57634e487b7160e01b600052603260045260246000fd5b60200260200101516001600160a01b03161415611102576040516001600160a01b0384169082156108fc029083906000818181858888f193505050501580156110fc573d6000803e3d6000fd5b50611128565b61112830848389868151811061056757634e487b7160e01b600052603260045260246000fd5b7f5d6a0a50e80538c808d96b677d243731a02e92f2b471106a162fd5e3e489917c858885848a878151811061116d57634e487b7160e01b600052603260045260246000fd5b6020026020010151604051611186959493929190612d3d565b60405180910390a1508061119981612e70565b915050611008565b60008083116111af57600080fd5b600080600901856040516111c3919061250b565b9081526020016040518091039020549050600081116111f45760405162461bcd60e51b815260040161041b90612942565b60006111fe611645565b90506001600160a01b03841661126b578434146040518060400160405280602081526020017f544f4b454e5f524551554553545f4554485f56414c55455f4d49534d41544348815250906112655760405162461bcd60e51b815260040161041b9190612602565b50611280565b6112806001600160a01b038516823088611676565b6001600160a01b038082166000908152600760209081526040808320938816835292905290812080548792906112b7908490612dda565b90915550506001600160a01b038416600090815260086020526040812080548792906112e4908490612dda565b90915550506040517fd8022c1c7c5e861c449539441107934f444661e174299708ebe5207181d2849d90611321908490899085908a908a90612d3d565b60405180910390a150949350505050565b61133a611f6f565b6000806009018360405161134e919061250b565b908152602001604051809103902054905061136881611410565b9150505b919050565b600061137b61181c565b6000806009018660405161138f919061250b565b90815260200160405180910390205411156113bc5760405162461bcd60e51b815260040161041b9061289d565b600183116113dc5760405162461bcd60e51b815260040161041b906127c4565b600082116113fc5760405162461bcd60e51b815260040161041b9061284d565b6108878585858561140b611645565b611851565b611418611f6f565b600082118015611431575061142d6005611748565b8211155b61144d5760405162461bcd60e51b815260040161041b906128d4565b6000828152600a60209081526040918290208251610140810184528154815260018201546001600160a01b031692810192909252600281018054929391929184019161149890612e35565b80601f01602080910402602001604051908101604052809291908181526020018280546114c490612e35565b80156115115780601f106114e657610100808354040283529160200191611511565b820191906000526020600020905b8154815290600101906020018083116114f457829003601f168201915b5050505050815260200160038201805461152a90612e35565b80601f016020809104026020016040519081016040528092919081815260200182805461155690612e35565b80156115a35780601f10611578576101008083540402835291602001916115a3565b820191906000526020600020905b81548152906001019060200180831161158657829003601f168201915b505050918352505060048281015460208084019190915260058401546040808501919091528051918201905260068401548152606083015260078301546080830152600883015460a09092019160ff169081111561161157634e487b7160e01b600052602160045260246000fd5b600481111561163057634e487b7160e01b600052602160045260246000fd5b81526020016009820154815250509050919050565b60006014361080159061165c575061165c33611bf1565b15611670575060131936013560601c611673565b50335b90565b6116ce846323b872dd60e01b858585604051602401611697939291906125a7565b60408051601f198184030181529190526020810180516001600160e01b03166001600160e01b031990931692909217909152611c16565b50505050565b6000828152600a60205260408120600581018390556116f590600601611caa565b6000838152600a60205260409081902090517fe321bae48bca174aa04d2bdaab0b7e5e2e5e92016da97de067e939314768a28e9161173a916003909101908590612615565b60405180910390a150919050565b5490565b6000611760826001600160a01b0316611cb3565b156117f757604051630b135d3f60e11b808252906001600160a01b03841690631626ba7e9061179590889088906004016125cb565b60206040518083038186803b1580156117ad57600080fd5b505afa1580156117c1573d6000803e3d6000fd5b505050506040513d601f19601f820116820180604052508101906117e59190612146565b6001600160e01b031916149050610d9a565b816001600160a01b031661180b8585611cb9565b6001600160a01b0316149050610d9a565b611824611cce565b600401546001600160a01b0316331461184f5760405162461bcd60e51b815260040161041b906126fd565b565b600061185d6005611caa565b6118676005611748565b9050600181111561194e5760005b61187f6005611748565b81101561194c576000600a60006118968486612df2565b815260208101919091526040016000206008015460ff1660048111156118cc57634e487b7160e01b600052602160045260246000fd5b1415801561191e57506001600a60006118e58486612df2565b815260208101919091526040016000206008015460ff16600481111561191b57634e487b7160e01b600052602160045260246000fd5b14155b61193a5760405162461bcd60e51b815260040161041b90612ae4565b8061194481612e70565b915050611875565b505b6000818152600a602090815260408083208151610140810183528154815260018201546001600160a01b031693810193909352600281018054919284019161199590612e35565b80601f01602080910402602001604051908101604052809291908181526020018280546119c190612e35565b8015611a0e5780601f106119e357610100808354040283529160200191611a0e565b820191906000526020600020905b8154815290600101906020018083116119f157829003601f168201915b50505050508152602001600382018054611a2790612e35565b80601f0160208091040260200160405190810160405280929190818152602001828054611a5390612e35565b8015611aa05780601f10611a7557610100808354040283529160200191611aa0565b820191906000526020600020905b815481529060010190602001808311611a8357829003601f168201915b505050918352505060048281015460208084019190915260058401546040808501919091528051918201905260068401548152606083015260078301546080830152600883015460a09092019160ff1690811115611b0e57634e487b7160e01b600052602160045260246000fd5b6004811115611b2d57634e487b7160e01b600052602160045260246000fd5b81526009918201546020918201528483526001600160a01b038616908301526060820189905260408083018990526080830188905260e083018790526000610100840152519192508391611b82908a9061250b565b9081526020016040518091039020819055507f4acd703e2c0f747bf92218920df8570ef01cf2dc27afcf23326e3ece95b55fe581600001518260200151836060015184604001518560800151604051611bdf959493929190612cda565b60405180910390a15095945050505050565b600080611bfc611cf2565b600301546001600160a01b03848116911614915050919050565b6000611c6b826040518060400160405280602081526020017f5361666545524332303a206c6f772d6c6576656c2063616c6c206661696c6564815250856001600160a01b0316611cf79092919063ffffffff16565b805190915015611ca55780806020019051810190611c899190612126565b611ca55760405162461bcd60e51b815260040161041b90612b9b565b505050565b80546001019055565b3b151590565b6000610d9a82611cc885611d0e565b90611d3e565b7fc8fcad8db84d3cc18b4c41d551ea0ee66dd599cde068d998e57d5e09332c131c90565b600090565b6060611d068484600085611d89565b949350505050565b600081604051602001611d219190612527565b604051602081830303815290604052805190602001209050919050565b60008151604114611d615760405162461bcd60e51b815260040161041b9061273f565b60208201516040830151606084015160001a611d7f86828585611e49565b9695505050505050565b606082471015611dab5760405162461bcd60e51b815260040161041b906129bb565b611db485611cb3565b611dd05760405162461bcd60e51b815260040161041b90612b2d565b600080866001600160a01b03168587604051611dec919061250b565b60006040518083038185875af1925050503d8060008114611e29576040519150601f19603f3d011682016040523d82523d6000602084013e611e2e565b606091505b5091509150611e3e828286611f36565b979650505050505050565b60007f7fffffffffffffffffffffffffffffff5d576e7357a4501ddfe92f46681b20a0821115611e8b5760405162461bcd60e51b815260040161041b90612979565b8360ff16601b1480611ea057508360ff16601c145b611ebc5760405162461bcd60e51b815260040161041b90612a01565b600060018686868660405160008152602001604052604051611ee194939291906125e4565b6020604051602081039080840390855afa158015611f03573d6000803e3d6000fd5b5050604051601f1901519150506001600160a01b0381166108875760405162461bcd60e51b815260040161041b906126c6565b60608315611f45575081610d9a565b825115611f555782518084602001fd5b8160405162461bcd60e51b815260040161041b9190612602565b6040518061014001604052806000815260200160006001600160a01b0316815260200160608152602001606081526020016000815260200160008152602001611fb6611ff0565b81526020016000815260200160006004811115611fe357634e487b7160e01b600052602160045260246000fd5b8152602001600081525090565b6040518060200160405280600081525090565b600067ffffffffffffffff83111561201d5761201d612ea1565b612030601f8401601f1916602001612d80565b905082815283838301111561204457600080fd5b828260208301376000602084830101529392505050565b80356001600160a01b038116811461136c57600080fd5b600082601f830112612082578081fd5b610d9a83833560208501612003565b600060208083850312156120a3578182fd5b825167ffffffffffffffff8111156120b9578283fd5b8301601f810185136120c9578283fd5b80516120dc6120d782612daa565b612d80565b81815283810190838501858402850186018910156120f8578687fd5b8694505b8385101561211a5780518352600194909401939185019185016120fc565b50979650505050505050565b600060208284031215612137578081fd5b81518015158114610d9a578182fd5b600060208284031215612157578081fd5b81516001600160e01b031981168114610d9a578182fd5b60006020828403121561217f578081fd5b813567ffffffffffffffff811115612195578182fd5b611d0684828501612072565b600080604083850312156121b3578081fd5b823567ffffffffffffffff808211156121ca578283fd5b6121d686838701612072565b93506020915081850135818111156121ec578384fd5b85019050601f810186136121fe578283fd5b803561220c6120d782612daa565b81815283810190838501858402850186018a1015612228578687fd5b8694505b838510156122515761223d8161205b565b83526001949094019391850191850161222c565b5080955050505050509250929050565b60008060008060808587031215612276578182fd5b843567ffffffffffffffff8082111561228d578384fd5b61229988838901612072565b955060208701359150808211156122ae578384fd5b506122bb87828801612072565b949794965050505060408301359260600135919050565b600080604083850312156122e4578182fd5b823567ffffffffffffffff8111156122fa578283fd5b61230685828601612072565b95602094909401359450505050565b600080600060608486031215612329578283fd5b833567ffffffffffffffff81111561233f578384fd5b61234b86828701612072565b935050602084013591506123616040850161205b565b90509250925092565b60008060006060848603121561237e578283fd5b833567ffffffffffffffff80821115612395578485fd5b6123a187838801612072565b94506020860135935060408601359150808211156123bd578283fd5b508401601f810186136123ce578182fd5b6123dd86823560208401612003565b9150509250925092565b6000806000606084860312156123fb578081fd5b833567ffffffffffffffff811115612411578182fd5b61241d86828701612072565b9660208601359650604090950135949350505050565b600060208284031215612444578081fd5b5035919050565b6001600160a01b03169052565b60008151808452612470816020860160208601612e09565b601f01601f19169290920160200192915050565b600581106124a257634e487b7160e01b600052602160045260246000fd5b9052565b519052565b6001600160f81b0319878116825286166001820152606085901b6bffffffffffffffffffffffff1916600282015283516000906124ef816016850160208901612e09565b9091016016810193909352506036820152605601949350505050565b6000825161251d818460208701612e09565b9190910192915050565b7f19457468657265756d205369676e6564204d6573736167653a0a3332000000008152601c810191909152603c0190565b6001600160a01b038416815260806020820181905260009061257c90830185612458565b828103604084015261258e8185612458565b8381036060909401939093525081526020019392505050565b6001600160a01b039384168152919092166020820152604081019190915260600190565b600083825260406020830152611d066040830184612458565b93845260ff9290921660208401526040830152606082015260800190565b600060208252610d9a6020830184612458565b60408152825460009081906002810460018083168061263557607f831692505b602080841082141561265557634e487b7160e01b87526022600452602487fd5b6126628460408a01612cd1565b8280156126765760018114612687576126b1565b60ff198716825282820197506126b1565b6126908c612dce565b895b878110156126ab57815484820152908601908401612692565b83019850505b50509690960196909652509095945050505050565b60208082526018908201527f45434453413a20696e76616c6964207369676e61747572650000000000000000604082015260600190565b60208082526022908201527f4c69624469616d6f6e643a204d75737420626520636f6e7472616374206f776e60408201526132b960f11b606082015260800190565b6020808252601f908201527f45434453413a20696e76616c6964207369676e6174757265206c656e67746800604082015260600190565b6020808252602e908201527f4f6e6c79205368656e616e6967616e20616464726573732063616e207570646160408201526d3a32903a3434b9903b30b63ab29760911b606082015260800190565b60208082526026908201527f4368616c6c656e6765206d7573742068617665206174206c656173742074776f604082015265207465616d7360d01b606082015260800190565b60208082526023908201527f6f6e6c7920746865206174686c6574652063616e20736574207468652070726960408201526263652160e81b606082015260800190565b60208082526030908201527f4368616c6c656e6765206d757374206d696e74206174206c65617374206f6e6560408201526f1021b430b63632b733b2902a37b5b2b760811b606082015260800190565b6020808252601e908201527f74686973206368616c6c656e676520616c726561647920657869737473210000604082015260600190565b6020808252601e908201527f74686973206368616c6c656e676520646f6573206e6f74206578697374210000604082015260600190565b6020808252601f908201527f4174686c65746520646964206e6f74207369676e207468697320707269636500604082015260600190565b6020808252601d908201527f74686973206368616c656e676520646f6573206e6f7420657869737421000000604082015260600190565b60208082526022908201527f45434453413a20696e76616c6964207369676e6174757265202773272076616c604082015261756560f01b606082015260800190565b60208082526026908201527f416464726573733a20696e73756666696369656e742062616c616e636520666f6040820152651c8818d85b1b60d21b606082015260800190565b60208082526022908201527f45434453413a20696e76616c6964207369676e6174757265202776272076616c604082015261756560f01b606082015260800190565b60208082526032908201527f43616e6e6f7420776974686472617720646f6e6174696f6e7320756e6c657373604082015271081c99599d5b99081a5cc8185b1b1bddd95960721b606082015260800190565b6020808252602f908201527f4f6e6c7920737563636565646564206368616c6c656e6765732063616e20626560408201526e2077697468647261776e2066726f6d60881b606082015260800190565b60208082526029908201527f50726576696f7573206368616c6c656e676520686173206e6f74206265656e20604082015268199d5b199a5b1b195960ba1b606082015260800190565b6020808252601d908201527f416464726573733a2063616c6c20746f206e6f6e2d636f6e7472616374000000604082015260600190565b6020808252601b908201527f416d6f756e74206973206c6172676572207468616e206c696d69740000000000604082015260600190565b6020808252602a908201527f5361666545524332303a204552433230206f7065726174696f6e20646964206e6040820152691bdd081cdd58d8d9595960b21b606082015260800190565b6020808252601e908201527f4f6e65206f662074686520746f6b656e7320686173203020616d6f756e740000604082015260600190565b600060208252825160208301526020830151612c3b604084018261244b565b506040830151610140806060850152612c58610160850183612458565b91506060850151601f19858403016080860152612c758382612458565b925050608085015160a085015260a085015160c085015260c0850151612c9e60e08601826124a6565b5060e085015161010085810191909152850151610120612cc081870183612484565b959095015193019290925250919050565b90815260200190565b8581526001600160a01b038516602082015260a060408201819052600090612d0490830186612458565b8281036060840152612d168186612458565b9150508260808301529695505050505050565b82815260408101610d9a6020830184612484565b600086825260a06020830152612d5660a0830187612458565b6001600160a01b039586166040840152606083019490945250921660809092019190915292915050565b60405181810167ffffffffffffffff81118282101715612da257612da2612ea1565b604052919050565b600067ffffffffffffffff821115612dc457612dc4612ea1565b5060209081020190565b60009081526020902090565b60008219821115612ded57612ded612e8b565b500190565b600082821015612e0457612e04612e8b565b500390565b60005b83811015612e24578181015183820152602001612e0c565b838111156116ce5750506000910152565b600281046001821680612e4957607f821691505b60208210811415612e6a57634e487b7160e01b600052602260045260246000fd5b50919050565b6000600019821415612e8457612e84612e8b565b5060010190565b634e487b7160e01b600052601160045260246000fd5b634e487b7160e01b600052604160045260246000fdfea2646970667358221220fb46bbd708f8f3307ccb4bb1439a4e450805e90d187e17ed36ec4f57cb5aa94864736f6c63430008000033",
  "devdoc": {
    "kind": "dev",
    "methods": {
      "createChallenge(string,string,uint256,uint256)": {
        "params": {
          "_challengeUrl": "IPFS URL with the challenge Livestream video",
          "_jsonUrl": "IPFS URL with the challenge JSON data",
          "_teamCount": "Total number of unique options for the challenge"
        }
      },
      "donate(string,uint256,address)": {
        "params": {
          "_challengeUrl": "IPFS URL of the challenge livestream",
          "_depositToken": "Token Address being donated",
          "_donationAmount": "Amount to donate"
        }
      },
      "resolveChallenge(string,uint256,uint256)": {
        "params": {
          "_challengeUrl": "IPFS URL of the challenge livestream",
          "_resolution": "integer representation of resolution results (1) Succeed, (2) Fail, (3) Refund"
        }
      },
      "withdrawBalance(string,address[])": {
        "params": {
          "_challengeUrl": "IPFS URL of the challenge livestream",
          "_tokenAddresses": "Addresses of tokens being withdrawn"
        }
      },
      "withdrawDonation(string,address[])": {
        "params": {
          "_challengeUrl": "IPFS URL of the challenge livestream",
          "_tokenAddresses": "Addresses of tokens being withdrawn"
        }
      }
    },
    "version": 1
  },
  "userdoc": {
    "kind": "user",
    "methods": {
      "createChallenge(string,string,uint256,uint256)": {
        "notice": "Public createChallenge function"
      },
      "donate(string,uint256,address)": {
        "notice": "Users can donate to a challenge"
      },
      "resolveChallenge(string,uint256,uint256)": {
        "notice": "The Shenanigan DAO Agent can call this function to finalize challenge results"
      },
      "withdrawBalance(string,address[])": {
        "notice": "Challenger can retrieve donations when challenge returns successful and the Succeed status is applied"
      },
      "withdrawDonation(string,address[])": {
        "notice": "User can retrieve their donation if the Challenge is deemed malicious and the Refund status is applied"
      }
    },
    "notice": "Deployed by an athlete A user can make a challenge for themself by calling createChallenge() Users can then add donations to this contract by calling donate() Challenges can be resolved by calling resolveChallenge() from the Shenanigan DAO Agent.",
    "version": 1
  },
  "storageLayout": {
    "storage": [
      {
        "astId": 471,
        "contract": "src/facets/ChallengeFacet.sol:ChallengeFacet",
        "label": "cs",
        "offset": 0,
        "slot": "0",
        "type": "t_struct(ChallengeStorage)4965_storage"
      }
    ],
    "types": {
      "t_address": {
        "encoding": "inplace",
        "label": "address",
        "numberOfBytes": "20"
      },
      "t_address_payable": {
        "encoding": "inplace",
        "label": "address payable",
        "numberOfBytes": "20"
      },
      "t_array(t_bytes32)dyn_storage": {
        "base": "t_bytes32",
        "encoding": "dynamic_array",
        "label": "bytes32[]",
        "numberOfBytes": "32"
      },
      "t_bool": {
        "encoding": "inplace",
        "label": "bool",
        "numberOfBytes": "1"
      },
      "t_bytes32": {
        "encoding": "inplace",
        "label": "bytes32",
        "numberOfBytes": "32"
      },
      "t_bytes_storage": {
        "encoding": "bytes",
        "label": "bytes",
        "numberOfBytes": "32"
      },
      "t_enum(Status)4870": {
        "encoding": "inplace",
        "label": "enum Status",
        "numberOfBytes": "1"
      },
      "t_mapping(t_address,t_mapping(t_address,t_uint256))": {
        "encoding": "mapping",
        "key": "t_address",
        "label": "mapping(address => mapping(address => uint256))",
        "numberOfBytes": "32",
        "value": "t_mapping(t_address,t_uint256)"
      },
      "t_mapping(t_address,t_struct(UintSet)7404_storage)": {
        "encoding": "mapping",
        "key": "t_address",
        "label": "mapping(address => struct EnumerableSet.UintSet)",
        "numberOfBytes": "32",
        "value": "t_struct(UintSet)7404_storage"
      },
      "t_mapping(t_address,t_uint256)": {
        "encoding": "mapping",
        "key": "t_address",
        "label": "mapping(address => uint256)",
        "numberOfBytes": "32",
        "value": "t_uint256"
      },
      "t_mapping(t_bytes32,t_uint256)": {
        "encoding": "mapping",
        "key": "t_bytes32",
        "label": "mapping(bytes32 => uint256)",
        "numberOfBytes": "32",
        "value": "t_uint256"
      },
      "t_mapping(t_string_memory_ptr,t_struct(UintSet)7404_storage)": {
        "encoding": "mapping",
        "key": "t_string_memory_ptr",
        "label": "mapping(string => struct EnumerableSet.UintSet)",
        "numberOfBytes": "32",
        "value": "t_struct(UintSet)7404_storage"
      },
      "t_mapping(t_string_memory_ptr,t_uint256)": {
        "encoding": "mapping",
        "key": "t_string_memory_ptr",
        "label": "mapping(string => uint256)",
        "numberOfBytes": "32",
        "value": "t_uint256"
      },
      "t_mapping(t_uint256,t_string_storage)": {
        "encoding": "mapping",
        "key": "t_uint256",
        "label": "mapping(uint256 => string)",
        "numberOfBytes": "32",
        "value": "t_string_storage"
      },
      "t_mapping(t_uint256,t_struct(Challenge)4893_storage)": {
        "encoding": "mapping",
        "key": "t_uint256",
        "label": "mapping(uint256 => struct Challenge)",
        "numberOfBytes": "32",
        "value": "t_struct(Challenge)4893_storage"
      },
      "t_mapping(t_uint256,t_struct(ChallengeToken)4906_storage)": {
        "encoding": "mapping",
        "key": "t_uint256",
        "label": "mapping(uint256 => struct ChallengeToken)",
        "numberOfBytes": "32",
        "value": "t_struct(ChallengeToken)4906_storage"
      },
      "t_mapping(t_uint256,t_struct(Counter)6934_storage)": {
        "encoding": "mapping",
        "key": "t_uint256",
        "label": "mapping(uint256 => struct Counters.Counter)",
        "numberOfBytes": "32",
        "value": "t_struct(Counter)6934_storage"
      },
      "t_string_memory_ptr": {
        "encoding": "bytes",
        "label": "string",
        "numberOfBytes": "32"
      },
      "t_string_storage": {
        "encoding": "bytes",
        "label": "string",
        "numberOfBytes": "32"
      },
      "t_struct(Challenge)4893_storage": {
        "encoding": "inplace",
        "label": "struct Challenge",
        "members": [
          {
            "astId": 4872,
            "contract": "src/facets/ChallengeFacet.sol:ChallengeFacet",
            "label": "id",
            "offset": 0,
            "slot": "0",
            "type": "t_uint256"
          },
          {
            "astId": 4874,
            "contract": "src/facets/ChallengeFacet.sol:ChallengeFacet",
            "label": "athlete",
            "offset": 0,
            "slot": "1",
            "type": "t_address_payable"
          },
          {
            "astId": 4876,
            "contract": "src/facets/ChallengeFacet.sol:ChallengeFacet",
            "label": "jsonUrl",
            "offset": 0,
            "slot": "2",
            "type": "t_string_storage"
          },
          {
            "astId": 4878,
            "contract": "src/facets/ChallengeFacet.sol:ChallengeFacet",
            "label": "challengeUrl",
            "offset": 0,
            "slot": "3",
            "type": "t_string_storage"
          },
          {
            "astId": 4880,
            "contract": "src/facets/ChallengeFacet.sol:ChallengeFacet",
            "label": "teamCount",
            "offset": 0,
            "slot": "4",
            "type": "t_uint256"
          },
          {
            "astId": 4882,
            "contract": "src/facets/ChallengeFacet.sol:ChallengeFacet",
            "label": "challengePrice",
            "offset": 0,
            "slot": "5",
            "type": "t_uint256"
          },
          {
            "astId": 4885,
            "contract": "src/facets/ChallengeFacet.sol:ChallengeFacet",
            "label": "challengePriceNonce",
            "offset": 0,
            "slot": "6",
            "type": "t_struct(Counter)6934_storage"
          },
          {
            "astId": 4887,
            "contract": "src/facets/ChallengeFacet.sol:ChallengeFacet",
            "label": "limit",
            "offset": 0,
            "slot": "7",
            "type": "t_uint256"
          },
          {
            "astId": 4890,
            "contract": "src/facets/ChallengeFacet.sol:ChallengeFacet",
            "label": "status",
            "offset": 0,
            "slot": "8",
            "type": "t_enum(Status)4870"
          },
          {
            "astId": 4892,
            "contract": "src/facets/ChallengeFacet.sol:ChallengeFacet",
            "label": "donatedFunds",
            "offset": 0,
            "slot": "9",
            "type": "t_uint256"
          }
        ],
        "numberOfBytes": "320"
      },
      "t_struct(ChallengeStorage)4965_storage": {
        "encoding": "inplace",
        "label": "struct ChallengeStorage",
        "members": [
          {
            "astId": 4908,
            "contract": "src/facets/ChallengeFacet.sol:ChallengeFacet",
            "label": "dao",
            "offset": 0,
            "slot": "0",
            "type": "t_address"
          },
          {
            "astId": 4910,
            "contract": "src/facets/ChallengeFacet.sol:ChallengeFacet",
            "label": "checkSignatureFlag",
            "offset": 20,
            "slot": "0",
            "type": "t_bool"
          },
          {
            "astId": 4912,
            "contract": "src/facets/ChallengeFacet.sol:ChallengeFacet",
            "label": "challengeFacet",
            "offset": 0,
            "slot": "1",
            "type": "t_address"
          },
          {
            "astId": 4914,
            "contract": "src/facets/ChallengeFacet.sol:ChallengeFacet",
            "label": "challengeTokenFacet",
            "offset": 0,
            "slot": "2",
            "type": "t_address"
          },
          {
            "astId": 4916,
            "contract": "src/facets/ChallengeFacet.sol:ChallengeFacet",
            "label": "trustedForwarder",
            "offset": 0,
            "slot": "3",
            "type": "t_address"
          },
          {
            "astId": 4918,
            "contract": "src/facets/ChallengeFacet.sol:ChallengeFacet",
            "label": "athleteTake",
            "offset": 0,
            "slot": "4",
            "type": "t_uint256"
          },
          {
            "astId": 4921,
            "contract": "src/facets/ChallengeFacet.sol:ChallengeFacet",
            "label": "totalChallenges",
            "offset": 0,
            "slot": "5",
            "type": "t_struct(Counter)6934_storage"
          },
          {
            "astId": 4926,
            "contract": "src/facets/ChallengeFacet.sol:ChallengeFacet",
            "label": "_athleteChallenges",
            "offset": 0,
            "slot": "6",
            "type": "t_mapping(t_address,t_struct(UintSet)7404_storage)"
          },
          {
            "astId": 4932,
            "contract": "src/facets/ChallengeFacet.sol:ChallengeFacet",
            "label": "donations",
            "offset": 0,
            "slot": "7",
            "type": "t_mapping(t_address,t_mapping(t_address,t_uint256))"
          },
          {
            "astId": 4936,
            "contract": "src/facets/ChallengeFacet.sol:ChallengeFacet",
            "label": "donationTotals",
            "offset": 0,
            "slot": "8",
            "type": "t_mapping(t_address,t_uint256)"
          },
          {
            "astId": 4940,
            "contract": "src/facets/ChallengeFacet.sol:ChallengeFacet",
            "label": "challengeIdByChallengeUrl",
            "offset": 0,
            "slot": "9",
            "type": "t_mapping(t_string_memory_ptr,t_uint256)"
          },
          {
            "astId": 4945,
            "contract": "src/facets/ChallengeFacet.sol:ChallengeFacet",
            "label": "_challengeById",
            "offset": 0,
            "slot": "10",
            "type": "t_mapping(t_uint256,t_struct(Challenge)4893_storage)"
          },
          {
            "astId": 4950,
            "contract": "src/facets/ChallengeFacet.sol:ChallengeFacet",
            "label": "_challengeTokenById",
            "offset": 0,
            "slot": "11",
            "type": "t_mapping(t_uint256,t_struct(ChallengeToken)4906_storage)"
          },
          {
            "astId": 4955,
            "contract": "src/facets/ChallengeFacet.sol:ChallengeFacet",
            "label": "_challengeTokens",
            "offset": 0,
            "slot": "12",
            "type": "t_mapping(t_string_memory_ptr,t_struct(UintSet)7404_storage)"
          },
          {
            "astId": 4959,
            "contract": "src/facets/ChallengeFacet.sol:ChallengeFacet",
            "label": "tokenChallenge",
            "offset": 0,
            "slot": "13",
            "type": "t_mapping(t_uint256,t_string_storage)"
          },
          {
            "astId": 4964,
            "contract": "src/facets/ChallengeFacet.sol:ChallengeFacet",
            "label": "_tokenIndexByChallengeId",
            "offset": 0,
            "slot": "14",
            "type": "t_mapping(t_uint256,t_struct(Counter)6934_storage)"
          }
        ],
        "numberOfBytes": "480"
      },
      "t_struct(ChallengeToken)4906_storage": {
        "encoding": "inplace",
        "label": "struct ChallengeToken",
        "members": [
          {
            "astId": 4895,
            "contract": "src/facets/ChallengeFacet.sol:ChallengeFacet",
            "label": "id",
            "offset": 0,
            "slot": "0",
            "type": "t_uint256"
          },
          {
            "astId": 4897,
            "contract": "src/facets/ChallengeFacet.sol:ChallengeFacet",
            "label": "signature",
            "offset": 0,
            "slot": "1",
            "type": "t_bytes_storage"
          },
          {
            "astId": 4899,
            "contract": "src/facets/ChallengeFacet.sol:ChallengeFacet",
            "label": "price",
            "offset": 0,
            "slot": "2",
            "type": "t_uint256"
          },
          {
            "astId": 4902,
            "contract": "src/facets/ChallengeFacet.sol:ChallengeFacet",
            "label": "priceNonce",
            "offset": 0,
            "slot": "3",
            "type": "t_struct(Counter)6934_storage"
          },
          {
            "astId": 4905,
            "contract": "src/facets/ChallengeFacet.sol:ChallengeFacet",
            "label": "challenge",
            "offset": 0,
            "slot": "4",
            "type": "t_struct(Challenge)4893_storage"
          }
        ],
        "numberOfBytes": "448"
      },
      "t_struct(Counter)6934_storage": {
        "encoding": "inplace",
        "label": "struct Counters.Counter",
        "members": [
          {
            "astId": 6933,
            "contract": "src/facets/ChallengeFacet.sol:ChallengeFacet",
            "label": "_value",
            "offset": 0,
            "slot": "0",
            "type": "t_uint256"
          }
        ],
        "numberOfBytes": "32"
      },
      "t_struct(Set)7000_storage": {
        "encoding": "inplace",
        "label": "struct EnumerableSet.Set",
        "members": [
          {
            "astId": 6995,
            "contract": "src/facets/ChallengeFacet.sol:ChallengeFacet",
            "label": "_values",
            "offset": 0,
            "slot": "0",
            "type": "t_array(t_bytes32)dyn_storage"
          },
          {
            "astId": 6999,
            "contract": "src/facets/ChallengeFacet.sol:ChallengeFacet",
            "label": "_indexes",
            "offset": 0,
            "slot": "1",
            "type": "t_mapping(t_bytes32,t_uint256)"
          }
        ],
        "numberOfBytes": "64"
      },
      "t_struct(UintSet)7404_storage": {
        "encoding": "inplace",
        "label": "struct EnumerableSet.UintSet",
        "members": [
          {
            "astId": 7403,
            "contract": "src/facets/ChallengeFacet.sol:ChallengeFacet",
            "label": "_inner",
            "offset": 0,
            "slot": "0",
            "type": "t_struct(Set)7000_storage"
          }
        ],
        "numberOfBytes": "64"
      },
      "t_uint256": {
        "encoding": "inplace",
        "label": "uint256",
        "numberOfBytes": "32"
      }
    }
  }
}