{
  "address": "0xEEa005831488160418cA4Ec09Dce6afF9bCA63BB",
  "abi": [
    {
      "inputs": [
        {
          "internalType": "bytes4",
          "name": "_functionSelector",
          "type": "bytes4"
        }
      ],
      "name": "facetAddress",
      "outputs": [
        {
          "internalType": "address",
          "name": "facetAddress_",
          "type": "address"
        }
      ],
      "stateMutability": "view",
      "type": "function"
    },
    {
      "inputs": [],
      "name": "facetAddresses",
      "outputs": [
        {
          "internalType": "address[]",
          "name": "facetAddresses_",
          "type": "address[]"
        }
      ],
      "stateMutability": "view",
      "type": "function"
    },
    {
      "inputs": [
        {
          "internalType": "address",
          "name": "_facet",
          "type": "address"
        }
      ],
      "name": "facetFunctionSelectors",
      "outputs": [
        {
          "internalType": "bytes4[]",
          "name": "facetFunctionSelectors_",
          "type": "bytes4[]"
        }
      ],
      "stateMutability": "view",
      "type": "function"
    },
    {
      "inputs": [],
      "name": "facets",
      "outputs": [
        {
          "components": [
            {
              "internalType": "address",
              "name": "facetAddress",
              "type": "address"
            },
            {
              "internalType": "bytes4[]",
              "name": "functionSelectors",
              "type": "bytes4[]"
            }
          ],
          "internalType": "struct IDiamondLoupe.Facet[]",
          "name": "facets_",
          "type": "tuple[]"
        }
      ],
      "stateMutability": "view",
      "type": "function"
    },
    {
      "inputs": [
        {
          "internalType": "bytes4",
          "name": "_interfaceId",
          "type": "bytes4"
        }
      ],
      "name": "supportsInterface",
      "outputs": [
        {
          "internalType": "bool",
          "name": "",
          "type": "bool"
        }
      ],
      "stateMutability": "view",
      "type": "function"
    }
  ],
  "args": [],
  "solcInputHash": "14584095d33f6567c3f4bcb7fba77299",
  "bytecode": "0x608060405234801561001057600080fd5b5061066e806100206000396000f3fe608060405234801561001057600080fd5b50600436106100575760003560e01c806301ffc9a71461005c57806352ef6b2c146100855780637a0ed6271461009a578063adfca15e146100af578063cdffacc6146100cf575b600080fd5b61006f61006a3660046104ac565b6100ef565b60405161007c9190610606565b60405180910390f35b61008d610122565b60405161007c919061052c565b6100a261018e565b60405161007c919061058c565b6100c26100bd36600461047e565b610363565b60405161007c9190610579565b6100e26100dd3660046104ac565b61040d565b60405161007c9190610518565b6000806100fa610442565b6001600160e01b0319841660009081526003909101602052604090205460ff16915050919050565b6060600061012e610442565b6002810180546040805160208084028201810190925282815293945083018282801561018357602002820191906000526020600020905b81546001600160a01b03168152600190910190602001808311610165575b505050505091505090565b6060600061019a610442565b60028101549091508067ffffffffffffffff8111156101c957634e487b7160e01b600052604160045260246000fd5b60405190808252806020026020018201604052801561020257816020015b6101ef610466565b8152602001906001900390816101e75790505b50925060005b8181101561035d57600083600201828154811061023557634e487b7160e01b600052603260045260246000fd5b9060005260206000200160009054906101000a90046001600160a01b031690508085838151811061027657634e487b7160e01b600052603260045260246000fd5b6020908102919091018101516001600160a01b03928316905290821660009081526001860182526040908190208054825181850281018501909352808352919290919083018282801561031557602002820191906000526020600020906000905b82829054906101000a900460e01b6001600160e01b031916815260200190600401906020826003010492830192600103820291508084116102d75790505b505050505085838151811061033a57634e487b7160e01b600052603260045260246000fd5b60200260200101516020018190525050808061035590610611565b915050610208565b50505090565b6060600061036f610442565b6001600160a01b0384166000908152600182016020908152604091829020805483518184028101840190945280845293945091929083018282801561040057602002820191906000526020600020906000905b82829054906101000a900460e01b6001600160e01b031916815260200190600401906020826003010492830192600103820291508084116103c25790505b5050505050915050919050565b600080610418610442565b6001600160e01b03199093166000908152602093909352505060409020546001600160a01b031690565b7fc8fcad8db84d3cc18b4c41d551ea0ee66dd599cde068d998e57d5e09332c131c90565b60408051808201909152600081526060602082015290565b60006020828403121561048f578081fd5b81356001600160a01b03811681146104a5578182fd5b9392505050565b6000602082840312156104bd578081fd5b81356001600160e01b0319811681146104a5578182fd5b6000815180845260208085019450808401835b8381101561050d5781516001600160e01b031916875295820195908201906001016104e7565b509495945050505050565b6001600160a01b0391909116815260200190565b6020808252825182820181905260009190848201906040850190845b8181101561056d5783516001600160a01b031683529284019291840191600101610548565b50909695505050505050565b6000602082526104a560208301846104d4565b60208082528251828201819052600091906040908185019080840286018301878501865b838110156105f857888303603f19018552815180516001600160a01b031684528701518784018790526105e5878501826104d4565b95880195935050908601906001016105b0565b509098975050505050505050565b901515815260200190565b600060001982141561063157634e487b7160e01b81526011600452602481fd5b506001019056fea264697066735822122078e5ff4a927ec2173a463af4058ac0fa1fdb19f96b086236d77fa7a8a8f768cd64736f6c63430008000033",
  "devdoc": {
    "kind": "dev",
    "methods": {
      "facetAddress(bytes4)": {
        "details": "If facet is not found return address(0).",
        "params": {
          "_functionSelector": "The function selector."
        },
        "returns": {
          "facetAddress_": "The facet address."
        }
      },
      "facetAddresses()": {
        "returns": {
          "facetAddresses_": "facetAddresses_"
        }
      },
      "facetFunctionSelectors(address)": {
        "params": {
          "_facet": "The facet address."
        },
        "returns": {
          "facetFunctionSelectors_": "facetFunctionSelectors_"
        }
      },
      "facets()": {
        "returns": {
          "facets_": "Facet"
        }
      }
    },
    "version": 1
  },
  "userdoc": {
    "kind": "user",
    "methods": {
      "facetAddress(bytes4)": {
        "notice": "Gets the facet that supports the given selector."
      },
      "facetAddresses()": {
        "notice": "Get all the facet addresses used by a diamond."
      },
      "facetFunctionSelectors(address)": {
        "notice": "Gets all the function selectors provided by a facet."
      },
      "facets()": {
        "notice": "Gets all facets and their selectors."
      }
    },
    "version": 1
  },
  "storageLayout": {
    "storage": [],
    "types": null
  }
}